{
  "contractName": "SparkCup",
  "abi": [
    {
      "constant": true,
      "inputs": [],
      "name": "contractModifier",
      "outputs": [
        {
          "name": "",
          "type": "address"
        }
      ],
      "payable": false,
      "stateMutability": "view",
      "type": "function"
    },
    {
      "constant": true,
      "inputs": [],
      "name": "developer",
      "outputs": [
        {
          "name": "",
          "type": "address"
        }
      ],
      "payable": false,
      "stateMutability": "view",
      "type": "function"
    },
    {
      "inputs": [],
      "payable": false,
      "stateMutability": "nonpayable",
      "type": "constructor"
    },
    {
      "anonymous": false,
      "inputs": [
        {
          "indexed": true,
          "name": "from",
          "type": "address"
        },
        {
          "indexed": true,
          "name": "to",
          "type": "address"
        },
        {
          "indexed": false,
          "name": "tokenId",
          "type": "uint256"
        }
      ],
      "name": "Transfer",
      "type": "event"
    },
    {
      "anonymous": false,
      "inputs": [
        {
          "indexed": true,
          "name": "owner",
          "type": "address"
        },
        {
          "indexed": true,
          "name": "approved",
          "type": "address"
        },
        {
          "indexed": false,
          "name": "tokenId",
          "type": "uint256"
        }
      ],
      "name": "Approval",
      "type": "event"
    },
    {
      "constant": false,
      "inputs": [],
      "name": "createTeams",
      "outputs": [],
      "payable": false,
      "stateMutability": "nonpayable",
      "type": "function"
    },
    {
      "constant": false,
      "inputs": [
        {
          "name": "tokenId",
          "type": "uint256"
        }
      ],
      "name": "buyTeam",
      "outputs": [],
      "payable": true,
      "stateMutability": "payable",
      "type": "function"
    },
    {
      "constant": true,
      "inputs": [
        {
          "name": "tokenId",
          "type": "uint256"
        }
      ],
      "name": "getTeam",
      "outputs": [
        {
          "name": "_tokenId",
          "type": "uint256"
        },
        {
          "name": "_name",
          "type": "string"
        },
        {
          "name": "_code",
          "type": "string"
        },
        {
          "name": "_price",
          "type": "uint256"
        },
        {
          "name": "_lastSoldPrice",
          "type": "uint256"
        },
        {
          "name": "_txCount",
          "type": "uint256"
        },
        {
          "name": "_rewardCount",
          "type": "uint256"
        },
        {
          "name": "_owner",
          "type": "address"
        }
      ],
      "payable": false,
      "stateMutability": "view",
      "type": "function"
    },
    {
      "constant": true,
      "inputs": [
        {
          "name": "tokenId",
          "type": "uint256"
        },
        {
          "name": "recordId",
          "type": "uint256"
        }
      ],
      "name": "getTeamTxRecords",
      "outputs": [
        {
          "name": "price",
          "type": "uint256"
        },
        {
          "name": "time",
          "type": "uint256"
        },
        {
          "name": "from",
          "type": "address"
        },
        {
          "name": "to",
          "type": "address"
        }
      ],
      "payable": false,
      "stateMutability": "view",
      "type": "function"
    },
    {
      "constant": true,
      "inputs": [],
      "name": "getPrizePool",
      "outputs": [
        {
          "name": "last16Price",
          "type": "uint256"
        },
        {
          "name": "last16Locked",
          "type": "bool"
        },
        {
          "name": "quarterPrice",
          "type": "uint256"
        },
        {
          "name": "quarterLocked",
          "type": "bool"
        },
        {
          "name": "semiPrice",
          "type": "uint256"
        },
        {
          "name": "semiLocked",
          "type": "bool"
        },
        {
          "name": "finalWinnerPrice",
          "type": "uint256"
        }
      ],
      "payable": false,
      "stateMutability": "view",
      "type": "function"
    },
    {
      "constant": false,
      "inputs": [],
      "name": "lock16Fund",
      "outputs": [],
      "payable": false,
      "stateMutability": "nonpayable",
      "type": "function"
    },
    {
      "constant": false,
      "inputs": [],
      "name": "lockQuarterFund",
      "outputs": [],
      "payable": false,
      "stateMutability": "nonpayable",
      "type": "function"
    },
    {
      "constant": false,
      "inputs": [],
      "name": "lockSemiFund",
      "outputs": [],
      "payable": false,
      "stateMutability": "nonpayable",
      "type": "function"
    },
    {
      "constant": true,
      "inputs": [
        {
          "name": "_owner",
          "type": "address"
        }
      ],
      "name": "balanceOf",
      "outputs": [
        {
          "name": "balance",
          "type": "uint256"
        }
      ],
      "payable": false,
      "stateMutability": "view",
      "type": "function"
    },
    {
      "constant": true,
      "inputs": [],
      "name": "implementsERC721",
      "outputs": [
        {
          "name": "",
          "type": "bool"
        }
      ],
      "payable": false,
      "stateMutability": "pure",
      "type": "function"
    },
    {
      "constant": true,
      "inputs": [
        {
          "name": "_tokenId",
          "type": "uint256"
        }
      ],
      "name": "ownerOf",
      "outputs": [
        {
          "name": "owner",
          "type": "address"
        }
      ],
      "payable": false,
      "stateMutability": "view",
      "type": "function"
    },
    {
      "constant": false,
      "inputs": [
        {
          "name": "_tokenId",
          "type": "uint256"
        }
      ],
      "name": "takeOwnership",
      "outputs": [],
      "payable": false,
      "stateMutability": "nonpayable",
      "type": "function"
    },
    {
      "constant": true,
      "inputs": [],
      "name": "totalSupply",
      "outputs": [
        {
          "name": "total",
          "type": "uint256"
        }
      ],
      "payable": false,
      "stateMutability": "view",
      "type": "function"
    },
    {
      "constant": false,
      "inputs": [
        {
          "name": "_from",
          "type": "address"
        },
        {
          "name": "_to",
          "type": "address"
        },
        {
          "name": "_tokenId",
          "type": "uint256"
        }
      ],
      "name": "transferFrom",
      "outputs": [],
      "payable": false,
      "stateMutability": "nonpayable",
      "type": "function"
    },
    {
      "constant": false,
      "inputs": [
        {
          "name": "_to",
          "type": "address"
        },
        {
          "name": "_tokenId",
          "type": "uint256"
        }
      ],
      "name": "transfer",
      "outputs": [],
      "payable": false,
      "stateMutability": "nonpayable",
      "type": "function"
    },
    {
      "constant": false,
      "inputs": [],
      "name": "destroy",
      "outputs": [],
      "payable": false,
      "stateMutability": "nonpayable",
      "type": "function"
    }
  ],
  "bytecode": "0x6080604052662386f26fc10000600055678ac7230489e8000060015534801561002757600080fd5b5033600c60006101000a81548173ffffffffffffffffffffffffffffffffffffffff021916908373ffffffffffffffffffffffffffffffffffffffff16021790555033600d60006101000a81548173ffffffffffffffffffffffffffffffffffffffff021916908373ffffffffffffffffffffffffffffffffffffffff16021790555060006004600001819055506000600460010160006101000a81548160ff02191690831515021790555060006004600201819055506000600460030160006101000a81548160ff021916908315150217905550600060048001819055506000600460050160006101000a81548160ff02191690831515021790555060006004600601819055506128078061013e6000396000f3006080604052600436106100fb576000357c0100000000000000000000000000000000000000000000000000000000900463ffffffff1680628e0f1b146101005780630feb172f146102685780631051db341461028857806318160ddd146102b757806323b872dd146102e25780636352211e1461034f57806370a08231146103bc5780637b672b1d1461041357806383197ef01461046a578063884bf67c146104815780638acfb6b1146104e2578063a9059cbb146104f9578063b2e6ceeb14610546578063b820ba9714610573578063c845a1a21461058a578063ca4b208b146105a1578063f8b9bb3b146105f8578063fe038093146106b0575b600080fd5b34801561010c57600080fd5b5061012b600480360381019080803590602001909291905050506106c7565b6040518089815260200180602001806020018881526020018781526020018681526020018581526020018473ffffffffffffffffffffffffffffffffffffffff1673ffffffffffffffffffffffffffffffffffffffff16815260200183810383528a818151815260200191508051906020019080838360005b838110156101bf5780820151818401526020810190506101a4565b50505050905090810190601f1680156101ec5780820380516001836020036101000a031916815260200191505b50838103825289818151815260200191508051906020019080838360005b8381101561022557808201518184015260208101905061020a565b50505050905090810190601f1680156102525780820380516001836020036101000a031916815260200191505b509a505050505050505050505060405180910390f35b61028660048036038101908080359060200190929190505050610897565b005b34801561029457600080fd5b5061029d610b3d565b604051808215151515815260200191505060405180910390f35b3480156102c357600080fd5b506102cc610b46565b6040518082815260200191505060405180910390f35b3480156102ee57600080fd5b5061034d600480360381019080803573ffffffffffffffffffffffffffffffffffffffff169060200190929190803573ffffffffffffffffffffffffffffffffffffffff16906020019092919080359060200190929190505050610b53565b005b34801561035b57600080fd5b5061037a60048036038101908080359060200190929190505050610b63565b604051808273ffffffffffffffffffffffffffffffffffffffff1673ffffffffffffffffffffffffffffffffffffffff16815260200191505060405180910390f35b3480156103c857600080fd5b506103fd600480360381019080803573ffffffffffffffffffffffffffffffffffffffff169060200190929190505050610bdf565b6040518082815260200191505060405180910390f35b34801561041f57600080fd5b50610428610c28565b604051808273ffffffffffffffffffffffffffffffffffffffff1673ffffffffffffffffffffffffffffffffffffffff16815260200191505060405180910390f35b34801561047657600080fd5b5061047f610c4e565b005b34801561048d57600080fd5b50610496610ce5565b6040518088815260200187151515158152602001868152602001851515151581526020018481526020018315151515815260200182815260200197505050505050505060405180910390f35b3480156104ee57600080fd5b506104f7610d57565b005b34801561050557600080fd5b50610544600480360381019080803573ffffffffffffffffffffffffffffffffffffffff16906020019092919080359060200190929190505050610dd3565b005b34801561055257600080fd5b5061057160048036038101908080359060200190929190505050610de2565b005b34801561057f57600080fd5b50610588610e7d565b005b34801561059657600080fd5b5061059f610ef9565b005b3480156105ad57600080fd5b506105b6610f75565b604051808273ffffffffffffffffffffffffffffffffffffffff1673ffffffffffffffffffffffffffffffffffffffff16815260200191505060405180910390f35b34801561060457600080fd5b5061062d6004803603810190808035906020019092919080359060200190929190505050610f9b565b604051808581526020018481526020018373ffffffffffffffffffffffffffffffffffffffff1673ffffffffffffffffffffffffffffffffffffffff1681526020018273ffffffffffffffffffffffffffffffffffffffff1673ffffffffffffffffffffffffffffffffffffffff16815260200194505050505060405180910390f35b3480156106bc57600080fd5b506106c561107d565b005b6000606080600080600080600080600b805490508a1015156106e857600080fd5b600b8a8154811015156106f757fe5b90600052602060002090600902019050899850806000018054600181600116156101000203166002900480601f0160208091040260200160405190810160405280929190818152602001828054600181600116156101000203166002900480156107a25780601f10610777576101008083540402835291602001916107a2565b820191906000526020600020905b81548152906001019060200180831161078557829003601f168201915b50505050509750806001018054600181600116156101000203166002900480601f0160208091040260200160405190810160405280929190818152602001828054600181600116156101000203166002900480156108415780601f1061081657610100808354040283529160200191610841565b820191906000526020600020905b81548152906001019060200180831161082457829003601f168201915b50505050509650806002015495508060030154945080600401549350806005015492508060060160009054906101000a900473ffffffffffffffffffffffffffffffffffffffff16915050919395975091939597565b600080600080600b858154811015156108ac57fe5b906000526020600020906009020160060160009054906101000a900473ffffffffffffffffffffffffffffffffffffffff169350600b858154811015156108ef57fe5b90600052602060002090600902016002015492503373ffffffffffffffffffffffffffffffffffffffff168473ffffffffffffffffffffffffffffffffffffffff161415151561093e57600080fd5b82341015151561094d57600080fd5b600b8581548110151561095c57fe5b90600052602060002090600902019150829050600154831015610980576002830290505b8373ffffffffffffffffffffffffffffffffffffffff166108fc349081150290604051600060405180830381858888f193505050501580156109c6573d6000803e3d6000fd5b50338260060160006101000a81548173ffffffffffffffffffffffffffffffffffffffff021916908373ffffffffffffffffffffffffffffffffffffffff1602179055508082600201819055508282600301819055506080604051908101604052808481526020014281526020018573ffffffffffffffffffffffffffffffffffffffff1681526020013373ffffffffffffffffffffffffffffffffffffffff16815250826007016000846004016000815480929190600101919050558152602001908152602001600020600082015181600001556020820151816001015560408201518160020160006101000a81548173ffffffffffffffffffffffffffffffffffffffff021916908373ffffffffffffffffffffffffffffffffffffffff16021790555060608201518160030160006101000a81548173ffffffffffffffffffffffffffffffffffffffff021916908373ffffffffffffffffffffffffffffffffffffffff1602179055509050505050505050565b60006001905090565b6000600b80549050905090565b610b5e83838361247b565b505050565b60006003600083815260200190815260200160002060009054906101000a900473ffffffffffffffffffffffffffffffffffffffff169050600073ffffffffffffffffffffffffffffffffffffffff168173ffffffffffffffffffffffffffffffffffffffff1614151515610bd757600080fd5b809050919050565b6000600260008373ffffffffffffffffffffffffffffffffffffffff1673ffffffffffffffffffffffffffffffffffffffff168152602001908152602001600020549050919050565b600c60009054906101000a900473ffffffffffffffffffffffffffffffffffffffff1681565b600c60009054906101000a900473ffffffffffffffffffffffffffffffffffffffff1673ffffffffffffffffffffffffffffffffffffffff163373ffffffffffffffffffffffffffffffffffffffff16141515610caa57600080fd5b600c60009054906101000a900473ffffffffffffffffffffffffffffffffffffffff1673ffffffffffffffffffffffffffffffffffffffff16ff5b60008060008060008060006004600001549650600460010160009054906101000a900460ff1695506004600201549450600460030160009054906101000a900460ff169350600460050160009054906101000a900460ff16915060048001549250600460060154905090919293949596565b600c60009054906101000a900473ffffffffffffffffffffffffffffffffffffffff1673ffffffffffffffffffffffffffffffffffffffff163373ffffffffffffffffffffffffffffffffffffffff16141515610db357600080fd5b6001600460030160006101000a81548160ff021916908315150217905550565b610dde33838361247b565b5050565b6000803391506003600084815260200190815260200160002060009054906101000a900473ffffffffffffffffffffffffffffffffffffffff1690508173ffffffffffffffffffffffffffffffffffffffff168173ffffffffffffffffffffffffffffffffffffffff1614151515610e5957600080fd5b610e628261255e565b1515610e6d57600080fd5b610e7881838561247b565b505050565b600c60009054906101000a900473ffffffffffffffffffffffffffffffffffffffff1673ffffffffffffffffffffffffffffffffffffffff163373ffffffffffffffffffffffffffffffffffffffff16141515610ed957600080fd5b6001600460050160006101000a81548160ff021916908315150217905550565b600c60009054906101000a900473ffffffffffffffffffffffffffffffffffffffff1673ffffffffffffffffffffffffffffffffffffffff163373ffffffffffffffffffffffffffffffffffffffff16141515610f5557600080fd5b6001600460010160006101000a81548160ff021916908315150217905550565b600d60009054906101000a900473ffffffffffffffffffffffffffffffffffffffff1681565b6000806000806000600b8054905087101515610fb657600080fd5b600b87815481101515610fc557fe5b90600052602060002090600902016004015486101515610fe457600080fd5b600b87815481101515610ff357fe5b90600052602060002090600902016007016000878152602001908152602001600020905080600001549450806001015493508060020160009054906101000a900473ffffffffffffffffffffffffffffffffffffffff1692508060030160009054906101000a900473ffffffffffffffffffffffffffffffffffffffff1691505092959194509250565b600c60009054906101000a900473ffffffffffffffffffffffffffffffffffffffff1673ffffffffffffffffffffffffffffffffffffffff163373ffffffffffffffffffffffffffffffffffffffff161415156110d957600080fd5b6111766040805190810160405280600681526020017f52757373696100000000000000000000000000000000000000000000000000008152506040805190810160405280600381526020017f5255530000000000000000000000000000000000000000000000000000000000815250600054600080600d60009054906101000a900473ffffffffffffffffffffffffffffffffffffffff16612597565b6112136040805190810160405280600c81526020017f53617564692041726162696100000000000000000000000000000000000000008152506040805190810160405280600381526020017f4b53410000000000000000000000000000000000000000000000000000000000815250600054600080600d60009054906101000a900473ffffffffffffffffffffffffffffffffffffffff16612597565b6112b06040805190810160405280600581526020017f45677970740000000000000000000000000000000000000000000000000000008152506040805190810160405280600381526020017f4547590000000000000000000000000000000000000000000000000000000000815250600054600080600d60009054906101000a900473ffffffffffffffffffffffffffffffffffffffff16612597565b61134d6040805190810160405280600781526020017f55727567756179000000000000000000000000000000000000000000000000008152506040805190810160405280600381526020017f5552550000000000000000000000000000000000000000000000000000000000815250600054600080600d60009054906101000a900473ffffffffffffffffffffffffffffffffffffffff16612597565b6113ea6040805190810160405280600881526020017f506f72747567616c0000000000000000000000000000000000000000000000008152506040805190810160405280600381526020017f504f520000000000000000000000000000000000000000000000000000000000815250600054600080600d60009054906101000a900473ffffffffffffffffffffffffffffffffffffffff16612597565b6114876040805190810160405280600581526020017f537061696e0000000000000000000000000000000000000000000000000000008152506040805190810160405280600381526020017f5350410000000000000000000000000000000000000000000000000000000000815250600054600080600d60009054906101000a900473ffffffffffffffffffffffffffffffffffffffff16612597565b6115246040805190810160405280600781526020017f4d6f726f63636f000000000000000000000000000000000000000000000000008152506040805190810160405280600381526020017f4d4f520000000000000000000000000000000000000000000000000000000000815250600054600080600d60009054906101000a900473ffffffffffffffffffffffffffffffffffffffff16612597565b6115c16040805190810160405280600481526020017f4972616e000000000000000000000000000000000000000000000000000000008152506040805190810160405280600381526020017f49524e0000000000000000000000000000000000000000000000000000000000815250600054600080600d60009054906101000a900473ffffffffffffffffffffffffffffffffffffffff16612597565b61165e6040805190810160405280600681526020017f4672616e636500000000000000000000000000000000000000000000000000008152506040805190810160405280600381526020017f4652410000000000000000000000000000000000000000000000000000000000815250600054600080600d60009054906101000a900473ffffffffffffffffffffffffffffffffffffffff16612597565b6116fb6040805190810160405280600981526020017f4175737472616c696100000000000000000000000000000000000000000000008152506040805190810160405280600381526020017f4155530000000000000000000000000000000000000000000000000000000000815250600054600080600d60009054906101000a900473ffffffffffffffffffffffffffffffffffffffff16612597565b6117986040805190810160405280600481526020017f50657275000000000000000000000000000000000000000000000000000000008152506040805190810160405280600381526020017f5045520000000000000000000000000000000000000000000000000000000000815250600054600080600d60009054906101000a900473ffffffffffffffffffffffffffffffffffffffff16612597565b6118356040805190810160405280600781526020017f44656e6d61726b000000000000000000000000000000000000000000000000008152506040805190810160405280600381526020017f44454e0000000000000000000000000000000000000000000000000000000000815250600054600080600d60009054906101000a900473ffffffffffffffffffffffffffffffffffffffff16612597565b6118d26040805190810160405280600981526020017f417267656e74696e6100000000000000000000000000000000000000000000008152506040805190810160405280600381526020017f4152470000000000000000000000000000000000000000000000000000000000815250600054600080600d60009054906101000a900473ffffffffffffffffffffffffffffffffffffffff16612597565b61196f6040805190810160405280600781526020017f4963656c616e64000000000000000000000000000000000000000000000000008152506040805190810160405280600381526020017f4943450000000000000000000000000000000000000000000000000000000000815250600054600080600d60009054906101000a900473ffffffffffffffffffffffffffffffffffffffff16612597565b611a0c6040805190810160405280600781526020017f43726f61746961000000000000000000000000000000000000000000000000008152506040805190810160405280600381526020017f43524f0000000000000000000000000000000000000000000000000000000000815250600054600080600d60009054906101000a900473ffffffffffffffffffffffffffffffffffffffff16612597565b611aa96040805190810160405280600781526020017f4e696765726961000000000000000000000000000000000000000000000000008152506040805190810160405280600381526020017f4e47410000000000000000000000000000000000000000000000000000000000815250600054600080600d60009054906101000a900473ffffffffffffffffffffffffffffffffffffffff16612597565b611b466040805190810160405280600681526020017f4272617a696c00000000000000000000000000000000000000000000000000008152506040805190810160405280600381526020017f42525a0000000000000000000000000000000000000000000000000000000000815250600054600080600d60009054906101000a900473ffffffffffffffffffffffffffffffffffffffff16612597565b611be36040805190810160405280600b81526020017f537769747a65726c616e640000000000000000000000000000000000000000008152506040805190810160405280600381526020017f5357490000000000000000000000000000000000000000000000000000000000815250600054600080600d60009054906101000a900473ffffffffffffffffffffffffffffffffffffffff16612597565b611c806040805190810160405280600a81526020017f436f7374612052696361000000000000000000000000000000000000000000008152506040805190810160405280600381526020017f4352430000000000000000000000000000000000000000000000000000000000815250600054600080600d60009054906101000a900473ffffffffffffffffffffffffffffffffffffffff16612597565b611d1d6040805190810160405280600681526020017f53657262696100000000000000000000000000000000000000000000000000008152506040805190810160405280600381526020017f5345520000000000000000000000000000000000000000000000000000000000815250600054600080600d60009054906101000a900473ffffffffffffffffffffffffffffffffffffffff16612597565b611dba6040805190810160405280600781526020017f4765726d616e79000000000000000000000000000000000000000000000000008152506040805190810160405280600381526020017f4745520000000000000000000000000000000000000000000000000000000000815250600054600080600d60009054906101000a900473ffffffffffffffffffffffffffffffffffffffff16612597565b611e576040805190810160405280600681526020017f4d657869636f00000000000000000000000000000000000000000000000000008152506040805190810160405280600381526020017f4d45580000000000000000000000000000000000000000000000000000000000815250600054600080600d60009054906101000a900473ffffffffffffffffffffffffffffffffffffffff16612597565b611ef46040805190810160405280600681526020017f53776564656e00000000000000000000000000000000000000000000000000008152506040805190810160405280600381526020017f5357450000000000000000000000000000000000000000000000000000000000815250600054600080600d60009054906101000a900473ffffffffffffffffffffffffffffffffffffffff16612597565b611f916040805190810160405280600b81526020017f536f757468204b6f7265610000000000000000000000000000000000000000008152506040805190810160405280600381526020017f4b4f520000000000000000000000000000000000000000000000000000000000815250600054600080600d60009054906101000a900473ffffffffffffffffffffffffffffffffffffffff16612597565b61202e6040805190810160405280600781526020017f42656c6769756d000000000000000000000000000000000000000000000000008152506040805190810160405280600381526020017f42454c0000000000000000000000000000000000000000000000000000000000815250600054600080600d60009054906101000a900473ffffffffffffffffffffffffffffffffffffffff16612597565b6120cb6040805190810160405280600681526020017f50616e616d6100000000000000000000000000000000000000000000000000008152506040805190810160405280600381526020017f50414e0000000000000000000000000000000000000000000000000000000000815250600054600080600d60009054906101000a900473ffffffffffffffffffffffffffffffffffffffff16612597565b6121686040805190810160405280600781526020017f54756e69736961000000000000000000000000000000000000000000000000008152506040805190810160405280600381526020017f54554e0000000000000000000000000000000000000000000000000000000000815250600054600080600d60009054906101000a900473ffffffffffffffffffffffffffffffffffffffff16612597565b6122056040805190810160405280600781526020017f456e676c616e64000000000000000000000000000000000000000000000000008152506040805190810160405280600381526020017f454e470000000000000000000000000000000000000000000000000000000000815250600054600080600d60009054906101000a900473ffffffffffffffffffffffffffffffffffffffff16612597565b6122a26040805190810160405280600681526020017f506f6c616e6400000000000000000000000000000000000000000000000000008152506040805190810160405280600381526020017f504f4c0000000000000000000000000000000000000000000000000000000000815250600054600080600d60009054906101000a900473ffffffffffffffffffffffffffffffffffffffff16612597565b61233f6040805190810160405280600781526020017f53656e6567616c000000000000000000000000000000000000000000000000008152506040805190810160405280600381526020017f53454e0000000000000000000000000000000000000000000000000000000000815250600054600080600d60009054906101000a900473ffffffffffffffffffffffffffffffffffffffff16612597565b6123dc6040805190810160405280600881526020017f436f6c6f6d6269610000000000000000000000000000000000000000000000008152506040805190810160405280600381526020017f434f4c0000000000000000000000000000000000000000000000000000000000815250600054600080600d60009054906101000a900473ffffffffffffffffffffffffffffffffffffffff16612597565b6124796040805190810160405280600581526020017f4a6170616e0000000000000000000000000000000000000000000000000000008152506040805190810160405280600381526020017f4a504e0000000000000000000000000000000000000000000000000000000000815250600054600080600d60009054906101000a900473ffffffffffffffffffffffffffffffffffffffff16612597565b565b6000600b80549050821115151561249157600080fd5b600b828154811015156124a057fe5b90600052602060002090600902019050828160060160006101000a81548173ffffffffffffffffffffffffffffffffffffffff021916908373ffffffffffffffffffffffffffffffffffffffff1602179055508273ffffffffffffffffffffffffffffffffffffffff168473ffffffffffffffffffffffffffffffffffffffff167fddf252ad1be2c89b69c2b068fc378daa952ba7f163c4a11628f55a4df523b3ef846040518082815260200191505060405180910390a350505050565b60008073ffffffffffffffffffffffffffffffffffffffff168273ffffffffffffffffffffffffffffffffffffffff1614159050919050565b61259f6126e2565b600060e060405190810160405280898152602001888152602001878152602001868152602001858152602001600081526020018473ffffffffffffffffffffffffffffffffffffffff1681525091506001600b8390806001815401808255809150509060018203906000526020600020906009020160009091929091909150600082015181600001908051906020019061263a929190612736565b506020820151816001019080519060200190612657929190612736565b5060408201518160020155606082015181600301556080820151816004015560a0820151816005015560c08201518160060160006101000a81548173ffffffffffffffffffffffffffffffffffffffff021916908373ffffffffffffffffffffffffffffffffffffffff16021790555050500390506126d86000848361247b565b5050505050505050565b60e060405190810160405280606081526020016060815260200160008152602001600081526020016000815260200160008152602001600073ffffffffffffffffffffffffffffffffffffffff1681525090565b828054600181600116156101000203166002900490600052602060002090601f016020900481019282601f1061277757805160ff19168380011785556127a5565b828001600101855582156127a5579182015b828111156127a4578251825591602001919060010190612789565b5b5090506127b291906127b6565b5090565b6127d891905b808211156127d45760008160009055506001016127bc565b5090565b905600a165627a7a72305820a1858965834861fb919872c09eef20d551718007533ff235aaff5fa5ee40262b0029",
  "source": "pragma solidity ^0.4.23;\n// import \"./ERC721.sol\";\n// import \"./SafeMath.sol\";\n\ncontract ERC721 {\n  // Required methods\n  function approve(address _to, uint256 _tokenId) public;\n  function balanceOf(address _owner) public view returns (uint256 balance);\n  function implementsERC721() public pure returns (bool);\n  function ownerOf(uint256 _tokenId) public view returns (address owner);\n  function takeOwnership(uint256 _tokenId) public;\n  function totalSupply() public view returns (uint256 total);\n  function transferFrom(address _from, address _to, uint256 _tokenId) public;\n  function transfer(address _to, uint256 _tokenId) public;\n\n  // Events\n  event Transfer(address indexed from, address indexed to, uint256 tokenId);\n  event Approval(address indexed owner, address indexed approved, uint256 tokenId);\n\n  // Optional\n  // function name() public view returns (string name);\n  // function symbol() public view returns (string symbol);\n  // function tokensOfOwner(address _owner) external view returns (uint256[] tokenIds);\n  // function tokenMetadata(uint256 _tokenId, string _preferredTransport) public view returns (string infoUrl);\n\n  // ERC-165 Compatibility (https://github.com/ethereum/EIPs/issues/165)\n  // function supportsInterface(bytes4 _interfaceID) external view returns (bool);\n}\n\n\n/**\n * @title Spark World Cup Contract\n * @author zhicai\n */\n\ncontract SparkCup {\n\n  /**\n   * Private variables\n   */\n   uint256 private initialPrice = 0.01 ether;\n   uint256 private maxPrice = 10 ether;\n   mapping (address => uint256) private ownerTeamCount;\n   mapping (uint256 => address) private teamOwners;\n   Prizes private prizes;\n\n   Team[] private teams;\n\n  /**\n   * Contract modifier, developer address\n   */\n   address public contractModifier;\n   address public developer;\n\n  /**\n   * Constructor\n   * Define contract MODIFIER, developer address.\n   * Initialize prize values.\n   */\n   constructor() public {\n      contractModifier = msg.sender;\n      developer = msg.sender;\n      prizes.last16Price = 0;\n      prizes.last16Locked = false;\n      prizes.quarterPrice = 0;\n      prizes.quarterLocked = false;\n      prizes.semiPrice = 0;\n      prizes.semiLocked = false;\n      prizes.finalWinnerPrice = 0;\n   }\n\n  /**\n   * Data structure\n   */\n   struct Team {\n      string name;\n      string code;\n      uint256 price;\n      uint256 lastSoldPrice;\n      uint256 txCount;\n      uint256 rewardCount;\n      address owner;\n      mapping (uint256 => TeamTxRecord) teamTxRecords;\n      mapping (uint256 => TeamReward) teamRewards;\n   }\n\n   struct TeamTxRecord {\n      uint256 price;\n      uint256 time;\n      address from;\n      address to;\n   }\n\n   struct TeamReward {\n      uint256 amount;\n      uint256 rewardTime;\n      address to;\n      string stage;\n   }\n\n   struct Prizes {\n       uint256 last16Price;\n       bool last16Locked;\n       uint256 quarterPrice;\n       bool quarterLocked;\n       uint256 semiPrice;\n       bool semiLocked;\n       uint256 finalWinnerPrice;\n   }\n\n   /**\n    * Modifier\n    */\n    modifier onlyContractModifier() {\n        require(msg.sender == contractModifier);\n        _;\n    }\n\n    // Events\n    event Transfer(address indexed from, address indexed to, uint256 tokenId);\n    event Approval(address indexed owner, address indexed approved, uint256 tokenId);\n\n   /**\n    * Public functions\n    */\n    function createTeams() public onlyContractModifier {\n        _createTeam(\"Russia\", \"RUS\", initialPrice, 0, 0, developer);\n        _createTeam(\"Saudi Arabia\", \"KSA\", initialPrice, 0, 0, developer);\n        _createTeam(\"Egypt\", \"EGY\", initialPrice, 0, 0, developer);\n        _createTeam(\"Uruguay\", \"URU\", initialPrice, 0, 0, developer);\n        _createTeam(\"Portugal\", \"POR\", initialPrice, 0, 0, developer);\n        _createTeam(\"Spain\", \"SPA\", initialPrice, 0, 0, developer);\n        _createTeam(\"Morocco\", \"MOR\", initialPrice, 0, 0, developer);\n        _createTeam(\"Iran\", \"IRN\", initialPrice, 0, 0, developer);\n        _createTeam(\"France\", \"FRA\", initialPrice, 0, 0, developer);\n        _createTeam(\"Australia\", \"AUS\", initialPrice, 0, 0, developer);\n        _createTeam(\"Peru\", \"PER\", initialPrice, 0, 0, developer);\n        _createTeam(\"Denmark\", \"DEN\", initialPrice, 0, 0, developer);\n        _createTeam(\"Argentina\", \"ARG\", initialPrice, 0, 0, developer);\n        _createTeam(\"Iceland\", \"ICE\", initialPrice, 0, 0, developer);\n        _createTeam(\"Croatia\", \"CRO\", initialPrice, 0, 0, developer);\n        _createTeam(\"Nigeria\", \"NGA\", initialPrice, 0, 0, developer);\n        _createTeam(\"Brazil\", \"BRZ\", initialPrice, 0, 0, developer);\n        _createTeam(\"Switzerland\", \"SWI\", initialPrice, 0, 0, developer);\n        _createTeam(\"Costa Rica\", \"CRC\", initialPrice, 0, 0, developer);\n        _createTeam(\"Serbia\", \"SER\", initialPrice, 0, 0, developer);\n        _createTeam(\"Germany\", \"GER\", initialPrice, 0, 0, developer);\n        _createTeam(\"Mexico\", \"MEX\", initialPrice, 0, 0, developer);\n        _createTeam(\"Sweden\", \"SWE\", initialPrice, 0, 0, developer);\n        _createTeam(\"South Korea\", \"KOR\", initialPrice, 0, 0, developer);\n        _createTeam(\"Belgium\", \"BEL\", initialPrice, 0, 0, developer);\n        _createTeam(\"Panama\", \"PAN\", initialPrice, 0, 0, developer);\n        _createTeam(\"Tunisia\", \"TUN\", initialPrice, 0, 0, developer);\n        _createTeam(\"England\", \"ENG\", initialPrice, 0, 0, developer);\n        _createTeam(\"Poland\", \"POL\", initialPrice, 0, 0, developer);\n        _createTeam(\"Senegal\", \"SEN\", initialPrice, 0, 0, developer);\n        _createTeam(\"Colombia\", \"COL\", initialPrice, 0, 0, developer);\n        _createTeam(\"Japan\", \"JPN\", initialPrice, 0, 0, developer);\n    }\n\n    /**\n     * Buying a team, double the price until 10 ether\n     */\n     function buyTeam(uint256 tokenId) public payable {\n        address currentOwner = teams[tokenId].owner;\n        uint256 currentPrice = teams[tokenId].price;\n\n        require(currentOwner != msg.sender);\n        require(msg.value >= currentPrice);\n\n        Team storage team = teams[tokenId];\n\n        uint256 newPrice = currentPrice;\n        if(currentPrice < maxPrice) {\n            newPrice = currentPrice * 2;\n        }\n\n        // Pay current owner\n        currentOwner.transfer(msg.value);\n\n        // Update tx record\n        team.owner = msg.sender;\n        team.price = newPrice;\n        team.lastSoldPrice = currentPrice;\n\n        team.teamTxRecords[team.txCount++] = TeamTxRecord ({\n            price: currentPrice,\n            time: uint256(now),\n            from: currentOwner,\n            to: msg.sender\n        });\n     }\n\n     function getTeam(uint256 tokenId) public view returns (\n        uint256 _tokenId,\n        string _name,\n        string _code,\n        uint256 _price,\n        uint256 _lastSoldPrice,\n        uint256 _txCount,\n        uint256 _rewardCount,\n        address _owner)\n    {\n        require(tokenId < teams.length);\n        Team storage team = teams[tokenId];\n        _tokenId = tokenId;\n        _name = team.name;\n        _code = team.code;\n        _price = team.price;\n        _lastSoldPrice = team.lastSoldPrice;\n        _txCount = team.txCount;\n        _rewardCount = team.rewardCount;\n        _owner = team.owner;\n     }\n\n    function getTeamTxRecords(uint256 tokenId, uint256 recordId) public view returns (\n        uint256 price,\n        uint256 time,\n        address from,\n        address to)\n    {\n        require(tokenId < teams.length);\n        require(recordId < teams[tokenId].txCount);\n\n        TeamTxRecord storage record = teams[tokenId].teamTxRecords[recordId];\n        price = record.price;\n        time = record.time;\n        from = record.from;\n        to = record.to;\n    }\n\n    function getPrizePool() public view returns (\n        uint256 last16Price,\n        bool last16Locked,\n        uint256 quarterPrice,\n        bool quarterLocked,\n        uint256 semiPrice,\n        bool semiLocked,\n        uint256 finalWinnerPrice)\n    {\n        last16Price = prizes.last16Price;\n        last16Locked = prizes.last16Locked;\n        quarterPrice = prizes.quarterPrice;\n        quarterLocked = prizes.quarterLocked;\n        semiLocked = prizes.semiLocked;\n        semiPrice = prizes.semiPrice;\n        finalWinnerPrice = prizes.finalWinnerPrice;\n    }\n\n    // Lock 16, fund wont goes to the 16 pool anymore\n    function lock16Fund() public onlyContractModifier {\n        prizes.last16Locked = true;\n    }\n\n    // Lock Quarter, fund wont goes to the Quarter pool anymore\n    function lockQuarterFund() public onlyContractModifier {\n        prizes.quarterLocked = true;\n    }\n\n    // Lock Semi, fund wont goes to the Semi pool anymore\n    function lockSemiFund() public onlyContractModifier {\n        prizes.semiLocked = true;\n    }\n\n    /// @notice Count all NFTs assigned to an owner\n    /// @dev NFTs assigned to the zero address are considered invalid, and this\n    ///  function throws for queries about the zero address.\n    /// @param _owner An address for whom to query the balance\n    /// @return The number of NFTs owned by `_owner`, possibly zero\n   function balanceOf(address _owner) public view returns (uint256 balance) {\n      return ownerTeamCount[_owner];\n   }\n\n   function implementsERC721() public pure returns (bool) {\n      return true;\n   }\n\n   /// @notice Find the owner of an NFT\n   /// @param _tokenId The identifier for an NFT\n   /// @dev NFTs assigned to zero address are considered invalid, and queries\n   ///  about them do throw.\n   /// @return The address of the owner of the NFT\n   function ownerOf(uint256 _tokenId) public view returns (address owner) {\n      owner = teamOwners[_tokenId];\n      require(owner != address(0));\n      return owner;\n   }\n\n   function takeOwnership(uint256 _tokenId) public {\n      address to = msg.sender;\n      address from = teamOwners[_tokenId];\n      require(from != to);\n      require(_addressNotNull(to));\n      // require(_approved(to, _tokenId));\n      _transfer(from, to, _tokenId);\n   }\n\n   function totalSupply() public view returns (uint256 total) {\n      return teams.length;\n   }\n\n   function transferFrom(address _from, address _to, uint256 _tokenId) public {\n      // do something here...\n      _transfer(_from, _to, _tokenId);\n   }\n\n   function transfer(address _to, uint256 _tokenId) public {\n      // do something here...\n      _transfer(msg.sender, _to, _tokenId);\n   }\n\n   function destroy() public onlyContractModifier {\n \t    selfdestruct(contractModifier);\n   }\n\n   /**\n    * Private functions\n    */\n    function _createTeam(string name, string code, uint256 price, uint256 lastSoldPrice, uint256 txCount, address owner) private {\n        Team memory team = Team(name, code, price, lastSoldPrice, txCount, 0, owner);\n\n        // token ID\n        // push return number of teams, -1 for index\n        uint256 teamId = teams.push(team) - 1;\n\n        // Transfer owner will be developer's address\n        _transfer(address(0), owner, teamId);\n    }\n\n    function _transfer(address from, address to, uint256 tokenId) private {\n        require (tokenId <= teams.length);\n\n        // Team storage ref.\n        // teams[tokenId] = to;\n        Team storage team = teams[tokenId];\n        team.owner = to;\n\n        // Event\n        emit Transfer(from, to, tokenId);\n    }\n\n    function _addressNotNull(address _address) private pure returns (bool) {\n        return _address != address(0);\n    }\n\n}\n",
  "sourcePath": "/Users/limeng/Desktop/project/study/spark-worldcup/contracts/SparkCup.sol",
  "compiler": {
    "name": "solc",
    "version": "0.4.24+commit.e67f0147.Emscripten.clang"
  },
  "schemaVersion": "2.0.0",
  "updatedAt": "2018-06-09T10:21:09.426Z"
}