{
  "contractName": "SparkCup",
  "abi": [
    {
      "constant": true,
      "inputs": [],
      "name": "contractModifier",
      "outputs": [
        {
          "name": "",
          "type": "address"
        }
      ],
      "payable": false,
      "stateMutability": "view",
      "type": "function"
    },
    {
      "constant": true,
      "inputs": [],
      "name": "developer",
      "outputs": [
        {
          "name": "",
          "type": "address"
        }
      ],
      "payable": false,
      "stateMutability": "view",
      "type": "function"
    },
    {
      "inputs": [],
      "payable": false,
      "stateMutability": "nonpayable",
      "type": "constructor"
    },
    {
      "anonymous": false,
      "inputs": [
        {
          "indexed": true,
          "name": "from",
          "type": "address"
        },
        {
          "indexed": true,
          "name": "to",
          "type": "address"
        },
        {
          "indexed": false,
          "name": "tokenId",
          "type": "uint256"
        }
      ],
      "name": "Transfer",
      "type": "event"
    },
    {
      "anonymous": false,
      "inputs": [
        {
          "indexed": true,
          "name": "owner",
          "type": "address"
        },
        {
          "indexed": true,
          "name": "approved",
          "type": "address"
        },
        {
          "indexed": false,
          "name": "tokenId",
          "type": "uint256"
        }
      ],
      "name": "Approval",
      "type": "event"
    },
    {
      "anonymous": false,
      "inputs": [
        {
          "indexed": true,
          "name": "value1",
          "type": "uint256"
        }
      ],
      "name": "test_value",
      "type": "event"
    },
    {
      "constant": true,
      "inputs": [],
      "name": "contractName",
      "outputs": [
        {
          "name": "",
          "type": "string"
        }
      ],
      "payable": false,
      "stateMutability": "pure",
      "type": "function"
    },
    {
      "constant": false,
      "inputs": [
        {
          "name": "tokenId",
          "type": "uint256"
        }
      ],
      "name": "buyTeam",
      "outputs": [],
      "payable": true,
      "stateMutability": "payable",
      "type": "function"
    },
    {
      "constant": true,
      "inputs": [
        {
          "name": "tokenId",
          "type": "uint256"
        }
      ],
      "name": "getTeam",
      "outputs": [
        {
          "name": "_tokenId",
          "type": "uint256"
        },
        {
          "name": "_name",
          "type": "string"
        },
        {
          "name": "_code",
          "type": "string"
        },
        {
          "name": "_price",
          "type": "uint256"
        },
        {
          "name": "_lastSoldPrice",
          "type": "uint256"
        },
        {
          "name": "_txCount",
          "type": "uint256"
        },
        {
          "name": "_rewardCount",
          "type": "uint256"
        },
        {
          "name": "_owner",
          "type": "address"
        }
      ],
      "payable": false,
      "stateMutability": "view",
      "type": "function"
    },
    {
      "constant": true,
      "inputs": [
        {
          "name": "tokenId",
          "type": "uint256"
        },
        {
          "name": "recordId",
          "type": "uint256"
        }
      ],
      "name": "getTeamTxRecords",
      "outputs": [
        {
          "name": "price",
          "type": "uint256"
        },
        {
          "name": "time",
          "type": "uint256"
        },
        {
          "name": "from",
          "type": "address"
        },
        {
          "name": "to",
          "type": "address"
        }
      ],
      "payable": false,
      "stateMutability": "view",
      "type": "function"
    },
    {
      "constant": true,
      "inputs": [],
      "name": "getPrizePool",
      "outputs": [
        {
          "name": "last16PoolTotal",
          "type": "uint256"
        },
        {
          "name": "last16Locked",
          "type": "bool"
        },
        {
          "name": "quarterPoolTotal",
          "type": "uint256"
        },
        {
          "name": "quarterLocked",
          "type": "bool"
        },
        {
          "name": "semiPoolTotal",
          "type": "uint256"
        },
        {
          "name": "semiLocked",
          "type": "bool"
        },
        {
          "name": "finalPoolTotal",
          "type": "uint256"
        }
      ],
      "payable": false,
      "stateMutability": "view",
      "type": "function"
    },
    {
      "constant": false,
      "inputs": [],
      "name": "lock16Fund",
      "outputs": [],
      "payable": false,
      "stateMutability": "nonpayable",
      "type": "function"
    },
    {
      "constant": false,
      "inputs": [
        {
          "name": "teamToken1",
          "type": "uint256"
        },
        {
          "name": "teamToken2",
          "type": "uint256"
        },
        {
          "name": "teamToken3",
          "type": "uint256"
        },
        {
          "name": "teamToken4",
          "type": "uint256"
        },
        {
          "name": "teamToken5",
          "type": "uint256"
        },
        {
          "name": "teamToken6",
          "type": "uint256"
        },
        {
          "name": "teamToken7",
          "type": "uint256"
        },
        {
          "name": "teamToken8",
          "type": "uint256"
        }
      ],
      "name": "distribute16PrizeWinners",
      "outputs": [],
      "payable": false,
      "stateMutability": "nonpayable",
      "type": "function"
    },
    {
      "constant": false,
      "inputs": [
        {
          "name": "teamToken1",
          "type": "uint256"
        },
        {
          "name": "teamToken2",
          "type": "uint256"
        },
        {
          "name": "teamToken3",
          "type": "uint256"
        },
        {
          "name": "teamToken4",
          "type": "uint256"
        }
      ],
      "name": "distributeQuarterPrizeWinners",
      "outputs": [],
      "payable": false,
      "stateMutability": "nonpayable",
      "type": "function"
    },
    {
      "constant": false,
      "inputs": [
        {
          "name": "teamToken1",
          "type": "uint256"
        },
        {
          "name": "teamToken2",
          "type": "uint256"
        }
      ],
      "name": "distributeSemiPrizeWinners",
      "outputs": [],
      "payable": false,
      "stateMutability": "nonpayable",
      "type": "function"
    },
    {
      "constant": false,
      "inputs": [
        {
          "name": "teamToken",
          "type": "uint256"
        }
      ],
      "name": "distributeFinalPrizeWinners",
      "outputs": [],
      "payable": false,
      "stateMutability": "nonpayable",
      "type": "function"
    },
    {
      "constant": false,
      "inputs": [],
      "name": "lockQuarterFund",
      "outputs": [],
      "payable": false,
      "stateMutability": "nonpayable",
      "type": "function"
    },
    {
      "constant": false,
      "inputs": [],
      "name": "lockSemiFund",
      "outputs": [],
      "payable": false,
      "stateMutability": "nonpayable",
      "type": "function"
    },
    {
      "constant": true,
      "inputs": [
        {
          "name": "_owner",
          "type": "address"
        }
      ],
      "name": "balanceOf",
      "outputs": [
        {
          "name": "balance",
          "type": "uint256"
        }
      ],
      "payable": false,
      "stateMutability": "view",
      "type": "function"
    },
    {
      "constant": true,
      "inputs": [],
      "name": "implementsERC721",
      "outputs": [
        {
          "name": "",
          "type": "bool"
        }
      ],
      "payable": false,
      "stateMutability": "pure",
      "type": "function"
    },
    {
      "constant": true,
      "inputs": [
        {
          "name": "_tokenId",
          "type": "uint256"
        }
      ],
      "name": "ownerOf",
      "outputs": [
        {
          "name": "owner",
          "type": "address"
        }
      ],
      "payable": false,
      "stateMutability": "view",
      "type": "function"
    },
    {
      "constant": false,
      "inputs": [
        {
          "name": "_tokenId",
          "type": "uint256"
        }
      ],
      "name": "takeOwnership",
      "outputs": [],
      "payable": false,
      "stateMutability": "nonpayable",
      "type": "function"
    },
    {
      "constant": true,
      "inputs": [],
      "name": "totalSupply",
      "outputs": [
        {
          "name": "total",
          "type": "uint256"
        }
      ],
      "payable": false,
      "stateMutability": "view",
      "type": "function"
    },
    {
      "constant": false,
      "inputs": [
        {
          "name": "_from",
          "type": "address"
        },
        {
          "name": "_to",
          "type": "address"
        },
        {
          "name": "_tokenId",
          "type": "uint256"
        }
      ],
      "name": "transferFrom",
      "outputs": [],
      "payable": false,
      "stateMutability": "nonpayable",
      "type": "function"
    },
    {
      "constant": false,
      "inputs": [
        {
          "name": "_to",
          "type": "address"
        },
        {
          "name": "_tokenId",
          "type": "uint256"
        }
      ],
      "name": "transfer",
      "outputs": [],
      "payable": false,
      "stateMutability": "nonpayable",
      "type": "function"
    },
    {
      "constant": false,
      "inputs": [],
      "name": "destroy",
      "outputs": [],
      "payable": false,
      "stateMutability": "nonpayable",
      "type": "function"
    },
    {
      "constant": false,
      "inputs": [],
      "name": "createTeams",
      "outputs": [],
      "payable": false,
      "stateMutability": "nonpayable",
      "type": "function"
    }
  ],
  "bytecode": "0x6080604052662386f26fc1000060005569043c33c193756480000060015560056002556019600355604660045534801561003857600080fd5b5033601060006101000a81548173ffffffffffffffffffffffffffffffffffffffff021916908373ffffffffffffffffffffffffffffffffffffffff16021790555033601160006101000a81548173ffffffffffffffffffffffffffffffffffffffff021916908373ffffffffffffffffffffffffffffffffffffffff16021790555060006008600001819055506000600860010160006101000a81548160ff02191690831515021790555060006008600201819055506000600860030160006101000a81548160ff02191690831515021790555060006008600401819055506000600860050160006101000a81548160ff02191690831515021790555060006008600601819055506000600560006101000a81548160ff0219169083151502179055506000600560016101000a81548160ff0219169083151502179055506000600560026101000a81548160ff0219169083151502179055506000600560036101000a81548160ff021916908315150217905550614bdd806101bc6000396000f300608060405260043610610132576000357c0100000000000000000000000000000000000000000000000000000000900463ffffffff1680628e0f1b146101375780630feb172f1461029f5780631051db34146102bf57806312d3ca53146102ee57806318160ddd1461032557806323b872dd146103505780632dfd955f146103bd5780636352211e1461040857806370a082311461047557806375d0c0dc146104cc5780637b672b1d1461055c57806383197ef0146105b3578063884bf67c146105ca5780638acfb6b11461062b578063a7ba61f214610642578063a9059cbb146106b5578063b2e6ceeb14610702578063b820ba971461072f578063c845a1a214610746578063ca4b208b1461075d578063f64dd688146107b4578063f8b9bb3b146107e1578063fe03809314610899575b600080fd5b34801561014357600080fd5b50610162600480360381019080803590602001909291905050506108b0565b6040518089815260200180602001806020018881526020018781526020018681526020018581526020018473ffffffffffffffffffffffffffffffffffffffff1673ffffffffffffffffffffffffffffffffffffffff16815260200183810383528a818151815260200191508051906020019080838360005b838110156101f65780820151818401526020810190506101db565b50505050905090810190601f1680156102235780820380516001836020036101000a031916815260200191505b50838103825289818151815260200191508051906020019080838360005b8381101561025c578082015181840152602081019050610241565b50505050905090810190601f1680156102895780820380516001836020036101000a031916815260200191505b509a505050505050505050505060405180910390f35b6102bd60048036038101908080359060200190929190505050610a80565b005b3480156102cb57600080fd5b506102d4611089565b604051808215151515815260200191505060405180910390f35b3480156102fa57600080fd5b506103236004803603810190808035906020019092919080359060200190929190505050611092565b005b34801561033157600080fd5b5061033a6114e0565b6040518082815260200191505060405180910390f35b34801561035c57600080fd5b506103bb600480360381019080803573ffffffffffffffffffffffffffffffffffffffff169060200190929190803573ffffffffffffffffffffffffffffffffffffffff169060200190929190803590602001909291905050506114ed565b005b3480156103c957600080fd5b50610406600480360381019080803590602001909291908035906020019092919080359060200190929190803590602001909291905050506114fd565b005b34801561041457600080fd5b5061043360048036038101908080359060200190929190505050611ced565b604051808273ffffffffffffffffffffffffffffffffffffffff1673ffffffffffffffffffffffffffffffffffffffff16815260200191505060405180910390f35b34801561048157600080fd5b506104b6600480360381019080803573ffffffffffffffffffffffffffffffffffffffff169060200190929190505050611d69565b6040518082815260200191505060405180910390f35b3480156104d857600080fd5b506104e1611db2565b6040518080602001828103825283818151815260200191508051906020019080838360005b83811015610521578082015181840152602081019050610506565b50505050905090810190601f16801561054e5780820380516001836020036101000a031916815260200191505b509250505060405180910390f35b34801561056857600080fd5b50610571611def565b604051808273ffffffffffffffffffffffffffffffffffffffff1673ffffffffffffffffffffffffffffffffffffffff16815260200191505060405180910390f35b3480156105bf57600080fd5b506105c8611e15565b005b3480156105d657600080fd5b506105df611eac565b6040518088815260200187151515158152602001868152602001851515151581526020018481526020018315151515815260200182815260200197505050505050505060405180910390f35b34801561063757600080fd5b50610640611f1f565b005b34801561064e57600080fd5b506106b36004803603810190808035906020019092919080359060200190929190803590602001909291908035906020019092919080359060200190929190803590602001909291908035906020019092919080359060200190929190505050611f9b565b005b3480156106c157600080fd5b50610700600480360381019080803573ffffffffffffffffffffffffffffffffffffffff16906020019092919080359060200190929190505050612eb3565b005b34801561070e57600080fd5b5061072d60048036038101908080359060200190929190505050612ec2565b005b34801561073b57600080fd5b50610744612f5d565b005b34801561075257600080fd5b5061075b612fd9565b005b34801561076957600080fd5b50610772613055565b604051808273ffffffffffffffffffffffffffffffffffffffff1673ffffffffffffffffffffffffffffffffffffffff16815260200191505060405180910390f35b3480156107c057600080fd5b506107df6004803603810190808035906020019092919050505061307b565b005b3480156107ed57600080fd5b5061081660048036038101908080359060200190929190803590602001909291905050506132ee565b604051808581526020018481526020018373ffffffffffffffffffffffffffffffffffffffff1673ffffffffffffffffffffffffffffffffffffffff1681526020018273ffffffffffffffffffffffffffffffffffffffff1673ffffffffffffffffffffffffffffffffffffffff16815260200194505050505060405180910390f35b3480156108a557600080fd5b506108ae6133d0565b005b6000606080600080600080600080600f805490508a1015156108d157600080fd5b600f8a8154811015156108e057fe5b90600052602060002090600902019050899850806000018054600181600116156101000203166002900480601f01602080910402602001604051908101604052809291908181526020018280546001816001161561010002031660029004801561098b5780601f106109605761010080835404028352916020019161098b565b820191906000526020600020905b81548152906001019060200180831161096e57829003601f168201915b50505050509750806001018054600181600116156101000203166002900480601f016020809104026020016040519081016040528092919081815260200182805460018160011615610100020316600290048015610a2a5780601f106109ff57610100808354040283529160200191610a2a565b820191906000526020600020905b815481529060010190602001808311610a0d57829003601f168201915b50505050509650806002015495508060030154945080600401549350806005015492508060060160009054906101000a900473ffffffffffffffffffffffffffffffffffffffff16915050919395975091939597565b600080600080600080600080600080600f8b815481101515610a9e57fe5b906000526020600020906009020160060160009054906101000a900473ffffffffffffffffffffffffffffffffffffffff169950600f8b815481101515610ae157fe5b90600052602060002090600902016002015498503373ffffffffffffffffffffffffffffffffffffffff168a73ffffffffffffffffffffffffffffffffffffffff1614151515610b3057600080fd5b601160009054906101000a900473ffffffffffffffffffffffffffffffffffffffff1673ffffffffffffffffffffffffffffffffffffffff163373ffffffffffffffffffffffffffffffffffffffff1614151515610b8d57600080fd5b883410151515610b9c57600080fd5b600f8b815481101515610bab57fe5b90600052602060002090600902019750889650600154891015610be057610bdd610bd68a60c86147ce565b6064614806565b96505b867f4173e2d6c5c6a936ddb55d9a8eb7d92c164c5876cd378b1a34dfdfeda171dd6460405160405180910390a2610c17348a61481c565b9550857f4173e2d6c5c6a936ddb55d9a8eb7d92c164c5876cd378b1a34dfdfeda171dd6460405160405180910390a2610c51866064614806565b9450610c68610c62866002546147ce565b8a614835565b9350610c76856003546147ce565b9250610c84856004546147ce565b9150827f4173e2d6c5c6a936ddb55d9a8eb7d92c164c5876cd378b1a34dfdfeda171dd6460405160405180910390a2601160009054906101000a900473ffffffffffffffffffffffffffffffffffffffff1673ffffffffffffffffffffffffffffffffffffffff166108fc859081150290604051600060405180830381858888f19350505050158015610d1b573d6000803e3d6000fd5b508973ffffffffffffffffffffffffffffffffffffffff166108fc839081150290604051600060405180830381858888f19350505050158015610d62573d6000803e3d6000fd5b5060009050600860010160009054906101000a900460ff161515610e4257610d8b836004614806565b90506008600001547f4173e2d6c5c6a936ddb55d9a8eb7d92c164c5876cd378b1a34dfdfeda171dd6460405160405180910390a2806008600001600082825401925050819055506008600001547f4173e2d6c5c6a936ddb55d9a8eb7d92c164c5876cd378b1a34dfdfeda171dd6460405160405180910390a2806008600201600082825401925050819055508060086004016000828254019250508190555080600860060160008282540192505081905550610f0d565b600860030160009054906101000a900460ff161515610ea657610e66836003614806565b9050806008600201600082825401925050819055508060086004016000828254019250508190555080600860060160008282540192505081905550610f0c565b600860050160009054906101000a900460ff161515610ef757610eca836002614806565b90508060086004016000828254019250508190555080600860060160008282540192505081905550610f0b565b826008600601600082825401925050819055505b5b5b338860060160006101000a81548173ffffffffffffffffffffffffffffffffffffffff021916908373ffffffffffffffffffffffffffffffffffffffff1602179055508688600201819055508888600301819055506080604051908101604052808a81526020014281526020018b73ffffffffffffffffffffffffffffffffffffffff1681526020013373ffffffffffffffffffffffffffffffffffffffff168152508860070160008a6004016000815480929190600101919050558152602001908152602001600020600082015181600001556020820151816001015560408201518160020160006101000a81548173ffffffffffffffffffffffffffffffffffffffff021916908373ffffffffffffffffffffffffffffffffffffffff16021790555060608201518160030160006101000a81548173ffffffffffffffffffffffffffffffffffffffff021916908373ffffffffffffffffffffffffffffffffffffffff1602179055509050505050505050505050505050565b60006001905090565b600080601060009054906101000a900473ffffffffffffffffffffffffffffffffffffffff1673ffffffffffffffffffffffffffffffffffffffff163373ffffffffffffffffffffffffffffffffffffffff161415156110f157600080fd5b600560029054906101000a900460ff1615151561110d57600080fd5b61111d6008600401546002614806565b9150600f8481548110151561112e57fe5b906000526020600020906009020190506002816005015414151561115157600080fd5b8060060160009054906101000a900473ffffffffffffffffffffffffffffffffffffffff1673ffffffffffffffffffffffffffffffffffffffff166108fc839081150290604051600060405180830381858888f193505050501580156111bb573d6000803e3d6000fd5b506080604051908101604052808381526020014281526020018260060160009054906101000a900473ffffffffffffffffffffffffffffffffffffffff1673ffffffffffffffffffffffffffffffffffffffff1681526020016040805190810160405280601381526020017f53656d692d517561727465722057696e6e657200000000000000000000000000815250815250816008016000836005016000815480929190600101919050558152602001908152602001600020600082015181600001556020820151816001015560408201518160020160006101000a81548173ffffffffffffffffffffffffffffffffffffffff021916908373ffffffffffffffffffffffffffffffffffffffff16021790555060608201518160030190805190602001906112eb929190614ab8565b50905050600f838154811015156112fe57fe5b906000526020600020906009020190506002816005015414151561132157600080fd5b8060060160009054906101000a900473ffffffffffffffffffffffffffffffffffffffff1673ffffffffffffffffffffffffffffffffffffffff166108fc839081150290604051600060405180830381858888f1935050505015801561138b573d6000803e3d6000fd5b506080604051908101604052808381526020014281526020018260060160009054906101000a900473ffffffffffffffffffffffffffffffffffffffff1673ffffffffffffffffffffffffffffffffffffffff1681526020016040805190810160405280601381526020017f53656d692d517561727465722057696e6e657200000000000000000000000000815250815250816008016000836005016000815480929190600101919050558152602001908152602001600020600082015181600001556020820151816001015560408201518160020160006101000a81548173ffffffffffffffffffffffffffffffffffffffff021916908373ffffffffffffffffffffffffffffffffffffffff16021790555060608201518160030190805190602001906114bb929190614ab8565b509050506001600560026101000a81548160ff02191690831515021790555050505050565b6000600f80549050905090565b6114f8838383614851565b505050565b600080601060009054906101000a900473ffffffffffffffffffffffffffffffffffffffff1673ffffffffffffffffffffffffffffffffffffffff163373ffffffffffffffffffffffffffffffffffffffff1614151561155c57600080fd5b600560019054906101000a900460ff1615151561157857600080fd5b6115886008600201546004614806565b9150600f8681548110151561159957fe5b90600052602060002090600902019050600181600501541415156115bc57600080fd5b8060060160009054906101000a900473ffffffffffffffffffffffffffffffffffffffff1673ffffffffffffffffffffffffffffffffffffffff166108fc839081150290604051600060405180830381858888f19350505050158015611626573d6000803e3d6000fd5b506080604051908101604052808381526020014281526020018260060160009054906101000a900473ffffffffffffffffffffffffffffffffffffffff1673ffffffffffffffffffffffffffffffffffffffff1681526020016040805190810160405280600e81526020017f517561727465722057696e6e6572000000000000000000000000000000000000815250815250816008016000836005016000815480929190600101919050558152602001908152602001600020600082015181600001556020820151816001015560408201518160020160006101000a81548173ffffffffffffffffffffffffffffffffffffffff021916908373ffffffffffffffffffffffffffffffffffffffff1602179055506060820151816003019080519060200190611756929190614ab8565b50905050600f8581548110151561176957fe5b906000526020600020906009020190506001816005015414151561178c57600080fd5b8060060160009054906101000a900473ffffffffffffffffffffffffffffffffffffffff1673ffffffffffffffffffffffffffffffffffffffff166108fc839081150290604051600060405180830381858888f193505050501580156117f6573d6000803e3d6000fd5b506080604051908101604052808381526020014281526020018260060160009054906101000a900473ffffffffffffffffffffffffffffffffffffffff1673ffffffffffffffffffffffffffffffffffffffff1681526020016040805190810160405280600e81526020017f517561727465722057696e6e6572000000000000000000000000000000000000815250815250816008016000836005016000815480929190600101919050558152602001908152602001600020600082015181600001556020820151816001015560408201518160020160006101000a81548173ffffffffffffffffffffffffffffffffffffffff021916908373ffffffffffffffffffffffffffffffffffffffff1602179055506060820151816003019080519060200190611926929190614ab8565b50905050600f8481548110151561193957fe5b906000526020600020906009020190506001816005015414151561195c57600080fd5b8060060160009054906101000a900473ffffffffffffffffffffffffffffffffffffffff1673ffffffffffffffffffffffffffffffffffffffff166108fc839081150290604051600060405180830381858888f193505050501580156119c6573d6000803e3d6000fd5b506080604051908101604052808381526020014281526020018260060160009054906101000a900473ffffffffffffffffffffffffffffffffffffffff1673ffffffffffffffffffffffffffffffffffffffff1681526020016040805190810160405280600e81526020017f517561727465722057696e6e6572000000000000000000000000000000000000815250815250816008016000836005016000815480929190600101919050558152602001908152602001600020600082015181600001556020820151816001015560408201518160020160006101000a81548173ffffffffffffffffffffffffffffffffffffffff021916908373ffffffffffffffffffffffffffffffffffffffff1602179055506060820151816003019080519060200190611af6929190614ab8565b50905050600f83815481101515611b0957fe5b9060005260206000209060090201905060018160050154141515611b2c57600080fd5b8060060160009054906101000a900473ffffffffffffffffffffffffffffffffffffffff1673ffffffffffffffffffffffffffffffffffffffff166108fc839081150290604051600060405180830381858888f19350505050158015611b96573d6000803e3d6000fd5b506080604051908101604052808381526020014281526020018260060160009054906101000a900473ffffffffffffffffffffffffffffffffffffffff1673ffffffffffffffffffffffffffffffffffffffff1681526020016040805190810160405280600e81526020017f517561727465722057696e6e6572000000000000000000000000000000000000815250815250816008016000836005016000815480929190600101919050558152602001908152602001600020600082015181600001556020820151816001015560408201518160020160006101000a81548173ffffffffffffffffffffffffffffffffffffffff021916908373ffffffffffffffffffffffffffffffffffffffff1602179055506060820151816003019080519060200190611cc6929190614ab8565b509050506001600560016101000a81548160ff021916908315150217905550505050505050565b60006007600083815260200190815260200160002060009054906101000a900473ffffffffffffffffffffffffffffffffffffffff169050600073ffffffffffffffffffffffffffffffffffffffff168173ffffffffffffffffffffffffffffffffffffffff1614151515611d6157600080fd5b809050919050565b6000600660008373ffffffffffffffffffffffffffffffffffffffff1673ffffffffffffffffffffffffffffffffffffffff168152602001908152602001600020549050919050565b60606040805190810160405280600981526020017f537061726b204375700000000000000000000000000000000000000000000000815250905090565b601060009054906101000a900473ffffffffffffffffffffffffffffffffffffffff1681565b601060009054906101000a900473ffffffffffffffffffffffffffffffffffffffff1673ffffffffffffffffffffffffffffffffffffffff163373ffffffffffffffffffffffffffffffffffffffff16141515611e7157600080fd5b601060009054906101000a900473ffffffffffffffffffffffffffffffffffffffff1673ffffffffffffffffffffffffffffffffffffffff16ff5b60008060008060008060006008600001549650600860010160009054906101000a900460ff1695506008600201549450600860030160009054906101000a900460ff169350600860050160009054906101000a900460ff1691506008600401549250600860060154905090919293949596565b601060009054906101000a900473ffffffffffffffffffffffffffffffffffffffff1673ffffffffffffffffffffffffffffffffffffffff163373ffffffffffffffffffffffffffffffffffffffff16141515611f7b57600080fd5b6001600860030160006101000a81548160ff021916908315150217905550565b600080601060009054906101000a900473ffffffffffffffffffffffffffffffffffffffff1673ffffffffffffffffffffffffffffffffffffffff163373ffffffffffffffffffffffffffffffffffffffff16141515611ffa57600080fd5b61200a6008600001546008614806565b9150600f8a81548110151561201b57fe5b906000526020600020906009020190506000816005015414151561203e57600080fd5b8060060160009054906101000a900473ffffffffffffffffffffffffffffffffffffffff1673ffffffffffffffffffffffffffffffffffffffff166108fc839081150290604051600060405180830381858888f193505050501580156120a8573d6000803e3d6000fd5b506080604051908101604052808381526020014281526020018260060160009054906101000a900473ffffffffffffffffffffffffffffffffffffffff1673ffffffffffffffffffffffffffffffffffffffff1681526020016040805190810160405280601481526020017f5369787465656e20526f756e642057696e6e6572000000000000000000000000815250815250816008016000836005016000815480929190600101919050558152602001908152602001600020600082015181600001556020820151816001015560408201518160020160006101000a81548173ffffffffffffffffffffffffffffffffffffffff021916908373ffffffffffffffffffffffffffffffffffffffff16021790555060608201518160030190805190602001906121d8929190614ab8565b50905050600f898154811015156121eb57fe5b906000526020600020906009020190506000816005015414151561220e57600080fd5b8060060160009054906101000a900473ffffffffffffffffffffffffffffffffffffffff1673ffffffffffffffffffffffffffffffffffffffff166108fc839081150290604051600060405180830381858888f19350505050158015612278573d6000803e3d6000fd5b506080604051908101604052808381526020014281526020018260060160009054906101000a900473ffffffffffffffffffffffffffffffffffffffff1673ffffffffffffffffffffffffffffffffffffffff1681526020016040805190810160405280601481526020017f5369787465656e20526f756e642057696e6e6572000000000000000000000000815250815250816008016000836005016000815480929190600101919050558152602001908152602001600020600082015181600001556020820151816001015560408201518160020160006101000a81548173ffffffffffffffffffffffffffffffffffffffff021916908373ffffffffffffffffffffffffffffffffffffffff16021790555060608201518160030190805190602001906123a8929190614ab8565b50905050600f888154811015156123bb57fe5b90600052602060002090600902019050600081600501541415156123de57600080fd5b8060060160009054906101000a900473ffffffffffffffffffffffffffffffffffffffff1673ffffffffffffffffffffffffffffffffffffffff166108fc839081150290604051600060405180830381858888f19350505050158015612448573d6000803e3d6000fd5b506080604051908101604052808381526020014281526020018260060160009054906101000a900473ffffffffffffffffffffffffffffffffffffffff1673ffffffffffffffffffffffffffffffffffffffff1681526020016040805190810160405280601481526020017f5369787465656e20526f756e642057696e6e6572000000000000000000000000815250815250816008016000836005016000815480929190600101919050558152602001908152602001600020600082015181600001556020820151816001015560408201518160020160006101000a81548173ffffffffffffffffffffffffffffffffffffffff021916908373ffffffffffffffffffffffffffffffffffffffff1602179055506060820151816003019080519060200190612578929190614ab8565b50905050600f8781548110151561258b57fe5b90600052602060002090600902019050600081600501541415156125ae57600080fd5b8060060160009054906101000a900473ffffffffffffffffffffffffffffffffffffffff1673ffffffffffffffffffffffffffffffffffffffff166108fc839081150290604051600060405180830381858888f19350505050158015612618573d6000803e3d6000fd5b506080604051908101604052808381526020014281526020018260060160009054906101000a900473ffffffffffffffffffffffffffffffffffffffff1673ffffffffffffffffffffffffffffffffffffffff1681526020016040805190810160405280601481526020017f5369787465656e20526f756e642057696e6e6572000000000000000000000000815250815250816008016000836005016000815480929190600101919050558152602001908152602001600020600082015181600001556020820151816001015560408201518160020160006101000a81548173ffffffffffffffffffffffffffffffffffffffff021916908373ffffffffffffffffffffffffffffffffffffffff1602179055506060820151816003019080519060200190612748929190614ab8565b50905050600f8681548110151561275b57fe5b906000526020600020906009020190506000816005015414151561277e57600080fd5b8060060160009054906101000a900473ffffffffffffffffffffffffffffffffffffffff1673ffffffffffffffffffffffffffffffffffffffff166108fc839081150290604051600060405180830381858888f193505050501580156127e8573d6000803e3d6000fd5b506080604051908101604052808381526020014281526020018260060160009054906101000a900473ffffffffffffffffffffffffffffffffffffffff1673ffffffffffffffffffffffffffffffffffffffff1681526020016040805190810160405280601481526020017f5369787465656e20526f756e642057696e6e6572000000000000000000000000815250815250816008016000836005016000815480929190600101919050558152602001908152602001600020600082015181600001556020820151816001015560408201518160020160006101000a81548173ffffffffffffffffffffffffffffffffffffffff021916908373ffffffffffffffffffffffffffffffffffffffff1602179055506060820151816003019080519060200190612918929190614ab8565b50905050600f8581548110151561292b57fe5b906000526020600020906009020190506000816005015414151561294e57600080fd5b8060060160009054906101000a900473ffffffffffffffffffffffffffffffffffffffff1673ffffffffffffffffffffffffffffffffffffffff166108fc839081150290604051600060405180830381858888f193505050501580156129b8573d6000803e3d6000fd5b506080604051908101604052808381526020014281526020018260060160009054906101000a900473ffffffffffffffffffffffffffffffffffffffff1673ffffffffffffffffffffffffffffffffffffffff1681526020016040805190810160405280601481526020017f5369787465656e20526f756e642057696e6e6572000000000000000000000000815250815250816008016000836005016000815480929190600101919050558152602001908152602001600020600082015181600001556020820151816001015560408201518160020160006101000a81548173ffffffffffffffffffffffffffffffffffffffff021916908373ffffffffffffffffffffffffffffffffffffffff1602179055506060820151816003019080519060200190612ae8929190614ab8565b50905050600f84815481101515612afb57fe5b9060005260206000209060090201905060008160050154141515612b1e57600080fd5b8060060160009054906101000a900473ffffffffffffffffffffffffffffffffffffffff1673ffffffffffffffffffffffffffffffffffffffff166108fc839081150290604051600060405180830381858888f19350505050158015612b88573d6000803e3d6000fd5b506080604051908101604052808381526020014281526020018260060160009054906101000a900473ffffffffffffffffffffffffffffffffffffffff1673ffffffffffffffffffffffffffffffffffffffff1681526020016040805190810160405280601481526020017f5369787465656e20526f756e642057696e6e6572000000000000000000000000815250815250816008016000836005016000815480929190600101919050558152602001908152602001600020600082015181600001556020820151816001015560408201518160020160006101000a81548173ffffffffffffffffffffffffffffffffffffffff021916908373ffffffffffffffffffffffffffffffffffffffff1602179055506060820151816003019080519060200190612cb8929190614ab8565b50905050600f83815481101515612ccb57fe5b9060005260206000209060090201905060008160050154141515612cee57600080fd5b8060060160009054906101000a900473ffffffffffffffffffffffffffffffffffffffff1673ffffffffffffffffffffffffffffffffffffffff166108fc839081150290604051600060405180830381858888f19350505050158015612d58573d6000803e3d6000fd5b506080604051908101604052808381526020014281526020018260060160009054906101000a900473ffffffffffffffffffffffffffffffffffffffff1673ffffffffffffffffffffffffffffffffffffffff1681526020016040805190810160405280601481526020017f5369787465656e20526f756e642057696e6e6572000000000000000000000000815250815250816008016000836005016000815480929190600101919050558152602001908152602001600020600082015181600001556020820151816001015560408201518160020160006101000a81548173ffffffffffffffffffffffffffffffffffffffff021916908373ffffffffffffffffffffffffffffffffffffffff1602179055506060820151816003019080519060200190612e88929190614ab8565b509050506001600560006101000a81548160ff02191690831515021790555050505050505050505050565b612ebe338383614851565b5050565b6000803391506007600084815260200190815260200160002060009054906101000a900473ffffffffffffffffffffffffffffffffffffffff1690508173ffffffffffffffffffffffffffffffffffffffff168173ffffffffffffffffffffffffffffffffffffffff1614151515612f3957600080fd5b612f4282614934565b1515612f4d57600080fd5b612f58818385614851565b505050565b601060009054906101000a900473ffffffffffffffffffffffffffffffffffffffff1673ffffffffffffffffffffffffffffffffffffffff163373ffffffffffffffffffffffffffffffffffffffff16141515612fb957600080fd5b6001600860050160006101000a81548160ff021916908315150217905550565b601060009054906101000a900473ffffffffffffffffffffffffffffffffffffffff1673ffffffffffffffffffffffffffffffffffffffff163373ffffffffffffffffffffffffffffffffffffffff1614151561303557600080fd5b6001600860010160006101000a81548160ff021916908315150217905550565b601160009054906101000a900473ffffffffffffffffffffffffffffffffffffffff1681565b6000601060009054906101000a900473ffffffffffffffffffffffffffffffffffffffff1673ffffffffffffffffffffffffffffffffffffffff163373ffffffffffffffffffffffffffffffffffffffff161415156130d957600080fd5b600560039054906101000a900460ff161515156130f557600080fd5b600f8281548110151561310457fe5b906000526020600020906009020190506003816005015414151561312757600080fd5b8060060160009054906101000a900473ffffffffffffffffffffffffffffffffffffffff1673ffffffffffffffffffffffffffffffffffffffff166108fc6008600601549081150290604051600060405180830381858888f19350505050158015613196573d6000803e3d6000fd5b5060806040519081016040528060086006015481526020014281526020018260060160009054906101000a900473ffffffffffffffffffffffffffffffffffffffff1673ffffffffffffffffffffffffffffffffffffffff1681526020016040805190810160405280600c81526020017f46696e616c2057696e6e65720000000000000000000000000000000000000000815250815250816008016000836005016000815480929190600101919050558152602001908152602001600020600082015181600001556020820151816001015560408201518160020160006101000a81548173ffffffffffffffffffffffffffffffffffffffff021916908373ffffffffffffffffffffffffffffffffffffffff16021790555060608201518160030190805190602001906132cb929190614ab8565b509050506001600560036101000a81548160ff0219169083151502179055505050565b6000806000806000600f805490508710151561330957600080fd5b600f8781548110151561331857fe5b9060005260206000209060090201600401548610151561333757600080fd5b600f8781548110151561334657fe5b90600052602060002090600902016007016000878152602001908152602001600020905080600001549450806001015493508060020160009054906101000a900473ffffffffffffffffffffffffffffffffffffffff1692508060030160009054906101000a900473ffffffffffffffffffffffffffffffffffffffff1691505092959194509250565b601060009054906101000a900473ffffffffffffffffffffffffffffffffffffffff1673ffffffffffffffffffffffffffffffffffffffff163373ffffffffffffffffffffffffffffffffffffffff1614151561342c57600080fd5b6134c96040805190810160405280600681526020017f52757373696100000000000000000000000000000000000000000000000000008152506040805190810160405280600381526020017f5255530000000000000000000000000000000000000000000000000000000000815250600054600080601160009054906101000a900473ffffffffffffffffffffffffffffffffffffffff1661496d565b6135666040805190810160405280600c81526020017f53617564692041726162696100000000000000000000000000000000000000008152506040805190810160405280600381526020017f4b53410000000000000000000000000000000000000000000000000000000000815250600054600080601160009054906101000a900473ffffffffffffffffffffffffffffffffffffffff1661496d565b6136036040805190810160405280600581526020017f45677970740000000000000000000000000000000000000000000000000000008152506040805190810160405280600381526020017f4547590000000000000000000000000000000000000000000000000000000000815250600054600080601160009054906101000a900473ffffffffffffffffffffffffffffffffffffffff1661496d565b6136a06040805190810160405280600781526020017f55727567756179000000000000000000000000000000000000000000000000008152506040805190810160405280600381526020017f5552550000000000000000000000000000000000000000000000000000000000815250600054600080601160009054906101000a900473ffffffffffffffffffffffffffffffffffffffff1661496d565b61373d6040805190810160405280600881526020017f506f72747567616c0000000000000000000000000000000000000000000000008152506040805190810160405280600381526020017f504f520000000000000000000000000000000000000000000000000000000000815250600054600080601160009054906101000a900473ffffffffffffffffffffffffffffffffffffffff1661496d565b6137da6040805190810160405280600581526020017f537061696e0000000000000000000000000000000000000000000000000000008152506040805190810160405280600381526020017f5350410000000000000000000000000000000000000000000000000000000000815250600054600080601160009054906101000a900473ffffffffffffffffffffffffffffffffffffffff1661496d565b6138776040805190810160405280600781526020017f4d6f726f63636f000000000000000000000000000000000000000000000000008152506040805190810160405280600381526020017f4d4f520000000000000000000000000000000000000000000000000000000000815250600054600080601160009054906101000a900473ffffffffffffffffffffffffffffffffffffffff1661496d565b6139146040805190810160405280600481526020017f4972616e000000000000000000000000000000000000000000000000000000008152506040805190810160405280600381526020017f49524e0000000000000000000000000000000000000000000000000000000000815250600054600080601160009054906101000a900473ffffffffffffffffffffffffffffffffffffffff1661496d565b6139b16040805190810160405280600681526020017f4672616e636500000000000000000000000000000000000000000000000000008152506040805190810160405280600381526020017f4652410000000000000000000000000000000000000000000000000000000000815250600054600080601160009054906101000a900473ffffffffffffffffffffffffffffffffffffffff1661496d565b613a4e6040805190810160405280600981526020017f4175737472616c696100000000000000000000000000000000000000000000008152506040805190810160405280600381526020017f4155530000000000000000000000000000000000000000000000000000000000815250600054600080601160009054906101000a900473ffffffffffffffffffffffffffffffffffffffff1661496d565b613aeb6040805190810160405280600481526020017f50657275000000000000000000000000000000000000000000000000000000008152506040805190810160405280600381526020017f5045520000000000000000000000000000000000000000000000000000000000815250600054600080601160009054906101000a900473ffffffffffffffffffffffffffffffffffffffff1661496d565b613b886040805190810160405280600781526020017f44656e6d61726b000000000000000000000000000000000000000000000000008152506040805190810160405280600381526020017f44454e0000000000000000000000000000000000000000000000000000000000815250600054600080601160009054906101000a900473ffffffffffffffffffffffffffffffffffffffff1661496d565b613c256040805190810160405280600981526020017f417267656e74696e6100000000000000000000000000000000000000000000008152506040805190810160405280600381526020017f4152470000000000000000000000000000000000000000000000000000000000815250600054600080601160009054906101000a900473ffffffffffffffffffffffffffffffffffffffff1661496d565b613cc26040805190810160405280600781526020017f4963656c616e64000000000000000000000000000000000000000000000000008152506040805190810160405280600381526020017f4943450000000000000000000000000000000000000000000000000000000000815250600054600080601160009054906101000a900473ffffffffffffffffffffffffffffffffffffffff1661496d565b613d5f6040805190810160405280600781526020017f43726f61746961000000000000000000000000000000000000000000000000008152506040805190810160405280600381526020017f43524f0000000000000000000000000000000000000000000000000000000000815250600054600080601160009054906101000a900473ffffffffffffffffffffffffffffffffffffffff1661496d565b613dfc6040805190810160405280600781526020017f4e696765726961000000000000000000000000000000000000000000000000008152506040805190810160405280600381526020017f4e47410000000000000000000000000000000000000000000000000000000000815250600054600080601160009054906101000a900473ffffffffffffffffffffffffffffffffffffffff1661496d565b613e996040805190810160405280600681526020017f4272617a696c00000000000000000000000000000000000000000000000000008152506040805190810160405280600381526020017f42525a0000000000000000000000000000000000000000000000000000000000815250600054600080601160009054906101000a900473ffffffffffffffffffffffffffffffffffffffff1661496d565b613f366040805190810160405280600b81526020017f537769747a65726c616e640000000000000000000000000000000000000000008152506040805190810160405280600381526020017f5357490000000000000000000000000000000000000000000000000000000000815250600054600080601160009054906101000a900473ffffffffffffffffffffffffffffffffffffffff1661496d565b613fd36040805190810160405280600a81526020017f436f7374612052696361000000000000000000000000000000000000000000008152506040805190810160405280600381526020017f4352430000000000000000000000000000000000000000000000000000000000815250600054600080601160009054906101000a900473ffffffffffffffffffffffffffffffffffffffff1661496d565b6140706040805190810160405280600681526020017f53657262696100000000000000000000000000000000000000000000000000008152506040805190810160405280600381526020017f5345520000000000000000000000000000000000000000000000000000000000815250600054600080601160009054906101000a900473ffffffffffffffffffffffffffffffffffffffff1661496d565b61410d6040805190810160405280600781526020017f4765726d616e79000000000000000000000000000000000000000000000000008152506040805190810160405280600381526020017f4745520000000000000000000000000000000000000000000000000000000000815250600054600080601160009054906101000a900473ffffffffffffffffffffffffffffffffffffffff1661496d565b6141aa6040805190810160405280600681526020017f4d657869636f00000000000000000000000000000000000000000000000000008152506040805190810160405280600381526020017f4d45580000000000000000000000000000000000000000000000000000000000815250600054600080601160009054906101000a900473ffffffffffffffffffffffffffffffffffffffff1661496d565b6142476040805190810160405280600681526020017f53776564656e00000000000000000000000000000000000000000000000000008152506040805190810160405280600381526020017f5357450000000000000000000000000000000000000000000000000000000000815250600054600080601160009054906101000a900473ffffffffffffffffffffffffffffffffffffffff1661496d565b6142e46040805190810160405280600b81526020017f536f757468204b6f7265610000000000000000000000000000000000000000008152506040805190810160405280600381526020017f4b4f520000000000000000000000000000000000000000000000000000000000815250600054600080601160009054906101000a900473ffffffffffffffffffffffffffffffffffffffff1661496d565b6143816040805190810160405280600781526020017f42656c6769756d000000000000000000000000000000000000000000000000008152506040805190810160405280600381526020017f42454c0000000000000000000000000000000000000000000000000000000000815250600054600080601160009054906101000a900473ffffffffffffffffffffffffffffffffffffffff1661496d565b61441e6040805190810160405280600681526020017f50616e616d6100000000000000000000000000000000000000000000000000008152506040805190810160405280600381526020017f50414e0000000000000000000000000000000000000000000000000000000000815250600054600080601160009054906101000a900473ffffffffffffffffffffffffffffffffffffffff1661496d565b6144bb6040805190810160405280600781526020017f54756e69736961000000000000000000000000000000000000000000000000008152506040805190810160405280600381526020017f54554e0000000000000000000000000000000000000000000000000000000000815250600054600080601160009054906101000a900473ffffffffffffffffffffffffffffffffffffffff1661496d565b6145586040805190810160405280600781526020017f456e676c616e64000000000000000000000000000000000000000000000000008152506040805190810160405280600381526020017f454e470000000000000000000000000000000000000000000000000000000000815250600054600080601160009054906101000a900473ffffffffffffffffffffffffffffffffffffffff1661496d565b6145f56040805190810160405280600681526020017f506f6c616e6400000000000000000000000000000000000000000000000000008152506040805190810160405280600381526020017f504f4c0000000000000000000000000000000000000000000000000000000000815250600054600080601160009054906101000a900473ffffffffffffffffffffffffffffffffffffffff1661496d565b6146926040805190810160405280600781526020017f53656e6567616c000000000000000000000000000000000000000000000000008152506040805190810160405280600381526020017f53454e0000000000000000000000000000000000000000000000000000000000815250600054600080601160009054906101000a900473ffffffffffffffffffffffffffffffffffffffff1661496d565b61472f6040805190810160405280600881526020017f436f6c6f6d6269610000000000000000000000000000000000000000000000008152506040805190810160405280600381526020017f434f4c0000000000000000000000000000000000000000000000000000000000815250600054600080601160009054906101000a900473ffffffffffffffffffffffffffffffffffffffff1661496d565b6147cc6040805190810160405280600581526020017f4a6170616e0000000000000000000000000000000000000000000000000000008152506040805190810160405280600381526020017f4a504e0000000000000000000000000000000000000000000000000000000000815250600054600080601160009054906101000a900473ffffffffffffffffffffffffffffffffffffffff1661496d565b565b6000808314156147e15760009050614800565b81830290508183828115156147f257fe5b041415156147fc57fe5b8090505b92915050565b6000818381151561481357fe5b04905092915050565b600082821115151561482a57fe5b818303905092915050565b6000818301905082811015151561484857fe5b80905092915050565b6000600f80549050821115151561486757600080fd5b600f8281548110151561487657fe5b90600052602060002090600902019050828160060160006101000a81548173ffffffffffffffffffffffffffffffffffffffff021916908373ffffffffffffffffffffffffffffffffffffffff1602179055508273ffffffffffffffffffffffffffffffffffffffff168473ffffffffffffffffffffffffffffffffffffffff167fddf252ad1be2c89b69c2b068fc378daa952ba7f163c4a11628f55a4df523b3ef846040518082815260200191505060405180910390a350505050565b60008073ffffffffffffffffffffffffffffffffffffffff168273ffffffffffffffffffffffffffffffffffffffff1614159050919050565b614975614b38565b600060e060405190810160405280898152602001888152602001878152602001868152602001858152602001600081526020018473ffffffffffffffffffffffffffffffffffffffff1681525091506001600f83908060018154018082558091505090600182039060005260206000209060090201600090919290919091506000820151816000019080519060200190614a10929190614ab8565b506020820151816001019080519060200190614a2d929190614ab8565b5060408201518160020155606082015181600301556080820151816004015560a0820151816005015560c08201518160060160006101000a81548173ffffffffffffffffffffffffffffffffffffffff021916908373ffffffffffffffffffffffffffffffffffffffff1602179055505050039050614aae60008483614851565b5050505050505050565b828054600181600116156101000203166002900490600052602060002090601f016020900481019282601f10614af957805160ff1916838001178555614b27565b82800160010185558215614b27579182015b82811115614b26578251825591602001919060010190614b0b565b5b509050614b349190614b8c565b5090565b60e060405190810160405280606081526020016060815260200160008152602001600081526020016000815260200160008152602001600073ffffffffffffffffffffffffffffffffffffffff1681525090565b614bae91905b80821115614baa576000816000905550600101614b92565b5090565b905600a165627a7a723058209f4716cf920ce7fd31a9dcd494ae3c4314ac6a3e6b1203c08da5d5e10ee147de0029",
  "source": "pragma solidity ^0.4.23;\n// import \"./ERC721.sol\";\n// import \"./SafeMath.sol\";\n\ncontract ERC721 {\n  // Required methods\n  function approve(address _to, uint256 _tokenId) public;\n  function balanceOf(address _owner) public view returns (uint256 balance);\n  function implementsERC721() public pure returns (bool);\n  function ownerOf(uint256 _tokenId) public view returns (address owner);\n  function takeOwnership(uint256 _tokenId) public;\n  function totalSupply() public view returns (uint256 total);\n  function transferFrom(address _from, address _to, uint256 _tokenId) public;\n  function transfer(address _to, uint256 _tokenId) public;\n\n  // Events\n  event Transfer(address indexed from, address indexed to, uint256 tokenId);\n  event Approval(address indexed owner, address indexed approved, uint256 tokenId);\n\n  // Optional\n  // function name() public view returns (string name);\n  // function symbol() public view returns (string symbol);\n  // function tokensOfOwner(address _owner) external view returns (uint256[] tokenIds);\n  // function tokenMetadata(uint256 _tokenId, string _preferredTransport) public view returns (string infoUrl);\n\n  // ERC-165 Compatibility (https://github.com/ethereum/EIPs/issues/165)\n  // function supportsInterface(bytes4 _interfaceID) external view returns (bool);\n}\n\n/**\n * @title SafeMath\n * @dev Math operations with safety checks that throw on error\n */\nlibrary SafeMath {\n\n  /**\n  * @dev Multiplies two numbers, throws on overflow.\n  */\n  function mul(uint256 a, uint256 b) internal pure returns (uint256 c) {\n    // Gas optimization: this is cheaper than asserting 'a' not being zero, but the\n    // benefit is lost if 'b' is also tested.\n    // See: https://github.com/OpenZeppelin/openzeppelin-solidity/pull/522\n    if (a == 0) {\n      return 0;\n    }\n\n    c = a * b;\n    assert(c / a == b);\n    return c;\n  }\n\n  /**\n  * @dev Integer division of two numbers, truncating the quotient.\n  */\n  function div(uint256 a, uint256 b) internal pure returns (uint256) {\n    // assert(b > 0); // Solidity automatically throws when dividing by 0\n    // uint256 c = a / b;\n    // assert(a == b * c + a % b); // There is no case in which this doesn't hold\n    return a / b;\n  }\n\n  /**\n  * @dev Subtracts two numbers, throws on overflow (i.e. if subtrahend is greater than minuend).\n  */\n  function sub(uint256 a, uint256 b) internal pure returns (uint256) {\n    assert(b <= a);\n    return a - b;\n  }\n\n  /**\n  * @dev Adds two numbers, throws on overflow.\n  */\n  function add(uint256 a, uint256 b) internal pure returns (uint256 c) {\n    c = a + b;\n    assert(c >= a);\n    return c;\n  }\n}\n\n\n/**\n * @title Spark World Cup Contract\n * @author zhicai\n */\n\ncontract SparkCup {\n\n  /**\n   * Private variables\n   */\n   uint256 private initialPrice = 0.01 ether;\n   uint256 private maxPrice = 20000 ether;\n\n   // Profit of selling a team, 5% to developer, 25% to Prizes Pool, 70% to owner\n   uint256 private developerShare = 5;\n   uint256 private prizesPoolShare = 25;\n   uint256 private ownerShare = 70;\n\n   // Marking Prizes Distribute Status\n   bool private alreadyDistributed16Prize;\n   bool private alreadyDistributedQuarterPrize;\n   bool private alreadyDistributedSemiPrize;\n   bool private alreadyDistributedFinalPrize;\n\n   mapping (address => uint256) private ownerTeamCount;\n   mapping (uint256 => address) private teamOwners;\n   Prizes private prizes;\n\n   Team[] private teams;\n\n  /**\n   * Contract modifier, developer address\n   */\n   address public contractModifier;\n   address public developer;\n\n  /**\n   * Constructor\n   * Define contract MODIFIER, developer address.\n   * Initialize prize values.\n   */\n   constructor() public {\n      contractModifier = msg.sender;\n      developer = msg.sender;\n      prizes.last16PoolTotal = 0;\n      prizes.last16Locked = false;\n      prizes.quarterPoolTotal = 0;\n      prizes.quarterLocked = false;\n      prizes.semiPoolTotal = 0;\n      prizes.semiLocked = false;\n      prizes.finalPoolTotal = 0;\n\n      alreadyDistributed16Prize = false;\n      alreadyDistributedQuarterPrize = false;\n      alreadyDistributedSemiPrize = false;\n      alreadyDistributedFinalPrize = false;\n      //_createTeams();\n   }\n\n  /**\n   * Data structure\n   */\n   struct Team {\n      string name;\n      string code;\n      uint256 price;\n      uint256 lastSoldPrice;\n      uint256 txCount;\n      uint256 rewardCount;\n      address owner;\n      mapping (uint256 => TeamTxRecord) teamTxRecords;\n      mapping (uint256 => TeamReward) teamRewards;\n   }\n\n   struct TeamTxRecord {\n      uint256 price;\n      uint256 time;\n      address from;\n      address to;\n   }\n\n   struct TeamReward {\n      uint256 amount;\n      uint256 rewardTime;\n      address to;\n      string stage;\n   }\n\n   struct Prizes {\n       uint256 last16PoolTotal;\n       bool last16Locked;\n       uint256 quarterPoolTotal;\n       bool quarterLocked;\n       uint256 semiPoolTotal;\n       bool semiLocked;\n       uint256 finalPoolTotal;\n   }\n\n   /**\n    * Modifier\n    */\n    modifier onlyContractModifier() {\n        require(msg.sender == contractModifier);\n        _;\n    }\n\n    // Events\n    event Transfer(address indexed from, address indexed to, uint256 tokenId);\n    event Approval(address indexed owner, address indexed approved, uint256 tokenId);\n    event test_value(uint256 indexed value1);\n\n   /**\n    * Public functions\n    */\n    function contractName() public pure returns(string) {\n        return \"Spark Cup\";\n    }\n\n    /**\n     * Buying a team, double the price until 10 ether\n     */\n     function buyTeam(uint256 tokenId) public payable {\n        address currentOwner = teams[tokenId].owner;\n        uint256 currentPrice = teams[tokenId].price;\n\n        require(currentOwner != msg.sender);\n        require(msg.sender != developer);\n        require(msg.value >= currentPrice);\n\n        Team storage team = teams[tokenId];\n\n        uint256 newPrice = currentPrice;\n        if(currentPrice < maxPrice) {\n            newPrice = SafeMath.div(SafeMath.mul(currentPrice, 200), 100);\n        }\n\n        emit test_value(newPrice); // log the current value\n        // Payments: 5% to developer, 25% to Prizes Pool, 70% to owner\n        uint256 profit = SafeMath.sub(msg.value, currentPrice);\n\n        emit test_value(profit); // log the current value\n\n        uint256 onePercent = SafeMath.div(profit, 100);\n        uint256 developerProfit = SafeMath.add(SafeMath.mul(onePercent, developerShare), currentPrice);\n        uint256 prizesPoolProfit = SafeMath.mul(onePercent, prizesPoolShare);\n        uint256 ownerProfit = SafeMath.mul(onePercent, ownerShare);\n\n        emit test_value(prizesPoolProfit); // log the current value\n        // Paying developer\n        developer.transfer(developerProfit);\n\n        // Paying owner\n        currentOwner.transfer(ownerProfit);\n\n        // Calculating each Prize Pool\n        uint256 slice = 0;\n        if(!prizes.last16Locked) {\n            slice = SafeMath.div(prizesPoolProfit, 4);\n            emit test_value(prizes.last16PoolTotal); // log the current value\n\n            prizes.last16PoolTotal += slice;\n\n            emit test_value(prizes.last16PoolTotal); // log the current value\n\n            prizes.quarterPoolTotal += slice;\n            prizes.semiPoolTotal += slice;\n            prizes.finalPoolTotal += slice;\n        } else if(!prizes.quarterLocked){\n            slice = SafeMath.div(prizesPoolProfit, 3);\n            prizes.quarterPoolTotal += slice;\n            prizes.semiPoolTotal += slice;\n            prizes.finalPoolTotal += slice;\n        } else if(!prizes.semiLocked){\n            slice = SafeMath.div(prizesPoolProfit, 2);\n            prizes.semiPoolTotal += slice;\n            prizes.finalPoolTotal += slice;\n        } else {\n            prizes.finalPoolTotal += prizesPoolProfit;\n        }\n\n        // Update tx record\n        team.owner = msg.sender;\n        team.price = newPrice;\n        team.lastSoldPrice = currentPrice;\n        team.teamTxRecords[team.txCount++] = TeamTxRecord ({\n            price: currentPrice,\n            time: uint256(now),\n            from: currentOwner,\n            to: msg.sender\n        });\n     }\n\n     function getTeam(uint256 tokenId) public view returns (\n        uint256 _tokenId,\n        string _name,\n        string _code,\n        uint256 _price,\n        uint256 _lastSoldPrice,\n        uint256 _txCount,\n        uint256 _rewardCount,\n        address _owner)\n    {\n        require(tokenId < teams.length);\n        Team storage team = teams[tokenId];\n        _tokenId = tokenId;\n        _name = team.name;\n        _code = team.code;\n        _price = team.price;\n        _lastSoldPrice = team.lastSoldPrice;\n        _txCount = team.txCount;\n        _rewardCount = team.rewardCount;\n        _owner = team.owner;\n     }\n\n    function getTeamTxRecords(uint256 tokenId, uint256 recordId) public view returns (\n        uint256 price,\n        uint256 time,\n        address from,\n        address to)\n    {\n        require(tokenId < teams.length);\n        require(recordId < teams[tokenId].txCount);\n\n        TeamTxRecord storage record = teams[tokenId].teamTxRecords[recordId];\n        price = record.price;\n        time = record.time;\n        from = record.from;\n        to = record.to;\n    }\n\n    function getPrizePool() public view returns (\n        uint256 last16PoolTotal,\n        bool last16Locked,\n        uint256 quarterPoolTotal,\n        bool quarterLocked,\n        uint256 semiPoolTotal,\n        bool semiLocked,\n        uint256 finalPoolTotal)\n    {\n        last16PoolTotal = prizes.last16PoolTotal;\n        last16Locked = prizes.last16Locked;\n        quarterPoolTotal = prizes.quarterPoolTotal;\n        quarterLocked = prizes.quarterLocked;\n        semiLocked = prizes.semiLocked;\n        semiPoolTotal = prizes.semiPoolTotal;\n        finalPoolTotal = prizes.finalPoolTotal;\n    }\n\n    // Lock 16, fund wont goes to the 16 pool anymore\n    function lock16Fund() public onlyContractModifier {\n        prizes.last16Locked = true;\n    }\n\n    // Distribute 16 prizes pool, 8 winners\n    function distribute16PrizeWinners (\n        uint256 teamToken1,\n        uint256 teamToken2,\n        uint256 teamToken3,\n        uint256 teamToken4,\n        uint256 teamToken5,\n        uint256 teamToken6,\n        uint256 teamToken7,\n        uint256 teamToken8) public onlyContractModifier {\n\n        //require(!alreadyDistributed16Prize);\n        uint256 slice = SafeMath.div(prizes.last16PoolTotal, 8);\n\n        Team storage team = teams[teamToken1];\n        require(team.rewardCount == 0);\n        team.owner.transfer(slice);\n        team.teamRewards[team.rewardCount++] = TeamReward({\n            amount: slice,\n            rewardTime: uint256(now),\n            to: team.owner,\n            stage: \"Sixteen Round Winner\"\n        });\n\n        team = teams[teamToken2];\n        require(team.rewardCount == 0);\n        team.owner.transfer(slice);\n        team.teamRewards[team.rewardCount++] = TeamReward({\n            amount: slice,\n            rewardTime: uint256(now),\n            to: team.owner,\n            stage: \"Sixteen Round Winner\"\n        });\n\n        team = teams[teamToken3];\n        require(team.rewardCount == 0);\n        team.owner.transfer(slice);\n        team.teamRewards[team.rewardCount++] = TeamReward({\n            amount: slice,\n            rewardTime: uint256(now),\n            to: team.owner,\n            stage: \"Sixteen Round Winner\"\n        });\n\n        team = teams[teamToken4];\n        require(team.rewardCount == 0);\n        team.owner.transfer(slice);\n        team.teamRewards[team.rewardCount++] = TeamReward({\n            amount: slice,\n            rewardTime: uint256(now),\n            to: team.owner,\n            stage: \"Sixteen Round Winner\"\n        });\n\n        team = teams[teamToken5];\n        require(team.rewardCount == 0);\n        team.owner.transfer(slice);\n        team.teamRewards[team.rewardCount++] = TeamReward({\n            amount: slice,\n            rewardTime: uint256(now),\n            to: team.owner,\n            stage: \"Sixteen Round Winner\"\n        });\n\n        team = teams[teamToken6];\n        require(team.rewardCount == 0);\n        team.owner.transfer(slice);\n        team.teamRewards[team.rewardCount++] = TeamReward({\n            amount: slice,\n            rewardTime: uint256(now),\n            to: team.owner,\n            stage: \"Sixteen Round Winner\"\n        });\n\n        team = teams[teamToken7];\n        require(team.rewardCount == 0);\n        team.owner.transfer(slice);\n        team.teamRewards[team.rewardCount++] = TeamReward({\n            amount: slice,\n            rewardTime: uint256(now),\n            to: team.owner,\n            stage: \"Sixteen Round Winner\"\n        });\n\n        team = teams[teamToken8];\n        require(team.rewardCount == 0);\n        team.owner.transfer(slice);\n        team.teamRewards[team.rewardCount++] = TeamReward({\n            amount: slice,\n            rewardTime: uint256(now),\n            to: team.owner,\n            stage: \"Sixteen Round Winner\"\n        });\n\n        alreadyDistributed16Prize = true;\n    }\n\n    // Distribute Quarter prizes pool, 4 winners\n    function distributeQuarterPrizeWinners (\n        uint256 teamToken1,\n        uint256 teamToken2,\n        uint256 teamToken3,\n        uint256 teamToken4) public onlyContractModifier\n    {\n        require(!alreadyDistributedQuarterPrize);\n        uint256 slice = SafeMath.div(prizes.quarterPoolTotal, 4);\n\n        Team storage team = teams[teamToken1];\n        require(team.rewardCount == 1);\n        team.owner.transfer(slice);\n        team.teamRewards[team.rewardCount++] = TeamReward({\n            amount: slice,\n            rewardTime: uint256(now),\n            to: team.owner,\n            stage: \"Quarter Winner\"\n        });\n\n        team = teams[teamToken2];\n        require(team.rewardCount == 1);\n        team.owner.transfer(slice);\n        team.teamRewards[team.rewardCount++] = TeamReward({\n            amount: slice,\n            rewardTime: uint256(now),\n            to: team.owner,\n            stage: \"Quarter Winner\"\n        });\n\n        team = teams[teamToken3];\n        require(team.rewardCount == 1);\n        team.owner.transfer(slice);\n        team.teamRewards[team.rewardCount++] = TeamReward({\n            amount: slice,\n            rewardTime: uint256(now),\n            to: team.owner,\n            stage: \"Quarter Winner\"\n        });\n\n        team = teams[teamToken4];\n        require(team.rewardCount == 1);\n        team.owner.transfer(slice);\n        team.teamRewards[team.rewardCount++] = TeamReward({\n            amount: slice,\n            rewardTime: uint256(now),\n            to: team.owner,\n            stage: \"Quarter Winner\"\n        });\n        alreadyDistributedQuarterPrize = true;\n    }\n\n    // Distribute Semi-Quarter prizes pool, 2 winners\n    function distributeSemiPrizeWinners (\n        uint256 teamToken1,\n        uint256 teamToken2\n        ) public onlyContractModifier\n    {\n        require(!alreadyDistributedSemiPrize);\n        uint256 slice = SafeMath.div(prizes.semiPoolTotal, 2);\n\n        Team storage team = teams[teamToken1];\n        require(team.rewardCount == 2);\n        team.owner.transfer(slice);\n        team.teamRewards[team.rewardCount++] = TeamReward({\n            amount: slice,\n            rewardTime: uint256(now),\n            to: team.owner,\n            stage: \"Semi-Quarter Winner\"\n        });\n\n        team = teams[teamToken2];\n        require(team.rewardCount == 2);\n        team.owner.transfer(slice);\n        team.teamRewards[team.rewardCount++] = TeamReward({\n            amount: slice,\n            rewardTime: uint256(now),\n            to: team.owner,\n            stage: \"Semi-Quarter Winner\"\n        });\n        alreadyDistributedSemiPrize = true;\n    }\n    // Distribute Final prizes pool, 1 winners\n    function distributeFinalPrizeWinners (uint256 teamToken) public onlyContractModifier {\n        require(!alreadyDistributedFinalPrize);\n        Team storage team = teams[teamToken];\n        require(team.rewardCount == 3);\n        team.owner.transfer(prizes.finalPoolTotal);\n        team.teamRewards[team.rewardCount++] = TeamReward({\n            amount: prizes.finalPoolTotal,\n            rewardTime: uint256(now),\n            to: team.owner,\n            stage: \"Final Winner\"\n        });\n        alreadyDistributedFinalPrize = true;\n    }\n\n    // Lock Quarter, fund wont goes to the Quarter pool anymore\n    function lockQuarterFund() public onlyContractModifier {\n        prizes.quarterLocked = true;\n    }\n\n    // Lock Semi, fund wont goes to the Semi pool anymore\n    function lockSemiFund() public onlyContractModifier {\n        prizes.semiLocked = true;\n    }\n\n    /// @notice Count all NFTs assigned to an owner\n    /// @dev NFTs assigned to the zero address are considered invalid, and this\n    ///  function throws for queries about the zero address.\n    /// @param _owner An address for whom to query the balance\n    /// @return The number of NFTs owned by `_owner`, possibly zero\n   function balanceOf(address _owner) public view returns (uint256 balance) {\n      return ownerTeamCount[_owner];\n   }\n\n   function implementsERC721() public pure returns (bool) {\n      return true;\n   }\n\n   /// @notice Find the owner of an NFT\n   /// @param _tokenId The identifier for an NFT\n   /// @dev NFTs assigned to zero address are considered invalid, and queries\n   ///  about them do throw.\n   /// @return The address of the owner of the NFT\n   function ownerOf(uint256 _tokenId) public view returns (address owner) {\n      owner = teamOwners[_tokenId];\n      require(owner != address(0));\n      return owner;\n   }\n\n   function takeOwnership(uint256 _tokenId) public {\n      address to = msg.sender;\n      address from = teamOwners[_tokenId];\n      require(from != to);\n      require(_addressNotNull(to));\n      // require(_approved(to, _tokenId));\n      _transfer(from, to, _tokenId);\n   }\n\n   function totalSupply() public view returns (uint256 total) {\n      return teams.length;\n   }\n\n   function transferFrom(address _from, address _to, uint256 _tokenId) public {\n      // do something here...\n      _transfer(_from, _to, _tokenId);\n   }\n\n   function transfer(address _to, uint256 _tokenId) public {\n      // do something here...\n      _transfer(msg.sender, _to, _tokenId);\n   }\n\n   function destroy() public onlyContractModifier {\n \t    selfdestruct(contractModifier);\n   }\n\n   /**\n    * Private functions\n    */\n    function createTeams() public onlyContractModifier {\n        _createTeam(\"Russia\", \"RUS\", initialPrice, 0, 0, developer);\n        _createTeam(\"Saudi Arabia\", \"KSA\", initialPrice, 0, 0, developer);\n        _createTeam(\"Egypt\", \"EGY\", initialPrice, 0, 0, developer);\n        _createTeam(\"Uruguay\", \"URU\", initialPrice, 0, 0, developer);\n        _createTeam(\"Portugal\", \"POR\", initialPrice, 0, 0, developer);\n        _createTeam(\"Spain\", \"SPA\", initialPrice, 0, 0, developer);\n        _createTeam(\"Morocco\", \"MOR\", initialPrice, 0, 0, developer);\n        _createTeam(\"Iran\", \"IRN\", initialPrice, 0, 0, developer);\n        _createTeam(\"France\", \"FRA\", initialPrice, 0, 0, developer);\n        _createTeam(\"Australia\", \"AUS\", initialPrice, 0, 0, developer);\n        _createTeam(\"Peru\", \"PER\", initialPrice, 0, 0, developer);\n        _createTeam(\"Denmark\", \"DEN\", initialPrice, 0, 0, developer);\n        _createTeam(\"Argentina\", \"ARG\", initialPrice, 0, 0, developer);\n        _createTeam(\"Iceland\", \"ICE\", initialPrice, 0, 0, developer);\n        _createTeam(\"Croatia\", \"CRO\", initialPrice, 0, 0, developer);\n        _createTeam(\"Nigeria\", \"NGA\", initialPrice, 0, 0, developer);\n        _createTeam(\"Brazil\", \"BRZ\", initialPrice, 0, 0, developer);\n        _createTeam(\"Switzerland\", \"SWI\", initialPrice, 0, 0, developer);\n        _createTeam(\"Costa Rica\", \"CRC\", initialPrice, 0, 0, developer);\n        _createTeam(\"Serbia\", \"SER\", initialPrice, 0, 0, developer);\n        _createTeam(\"Germany\", \"GER\", initialPrice, 0, 0, developer);\n        _createTeam(\"Mexico\", \"MEX\", initialPrice, 0, 0, developer);\n        _createTeam(\"Sweden\", \"SWE\", initialPrice, 0, 0, developer);\n        _createTeam(\"South Korea\", \"KOR\", initialPrice, 0, 0, developer);\n        _createTeam(\"Belgium\", \"BEL\", initialPrice, 0, 0, developer);\n        _createTeam(\"Panama\", \"PAN\", initialPrice, 0, 0, developer);\n        _createTeam(\"Tunisia\", \"TUN\", initialPrice, 0, 0, developer);\n        _createTeam(\"England\", \"ENG\", initialPrice, 0, 0, developer);\n        _createTeam(\"Poland\", \"POL\", initialPrice, 0, 0, developer);\n        _createTeam(\"Senegal\", \"SEN\", initialPrice, 0, 0, developer);\n        _createTeam(\"Colombia\", \"COL\", initialPrice, 0, 0, developer);\n        _createTeam(\"Japan\", \"JPN\", initialPrice, 0, 0, developer);\n    }\n\n    function _createTeam(string name, string code, uint256 price, uint256 lastSoldPrice, uint256 txCount, address owner) private {\n        Team memory team = Team(name, code, price, lastSoldPrice, txCount, 0, owner);\n\n        // token ID\n        // push return number of teams, -1 for index\n        uint256 teamId = teams.push(team) - 1;\n\n        // Transfer owner will be developer's address\n        _transfer(address(0), owner, teamId);\n    }\n\n    function _transfer(address from, address to, uint256 tokenId) private {\n        require (tokenId <= teams.length);\n\n        // Team storage ref.\n        // teams[tokenId] = to;\n        Team storage team = teams[tokenId];\n        team.owner = to;\n\n        // Event\n        emit Transfer(from, to, tokenId);\n    }\n\n    function _addressNotNull(address _address) private pure returns (bool) {\n        return _address != address(0);\n    }\n\n}\n",
  "sourcePath": "/Users/limeng/Desktop/project/study/spark-worldcup/contracts/SparkCup.sol",
  "compiler": {
    "name": "solc",
    "version": "0.4.24+commit.e67f0147.Emscripten.clang"
  },
  "schemaVersion": "2.0.0",
  "updatedAt": "2018-06-11T07:29:44.642Z"
}